:020000040800F2
:10000000081B0020E1740008D1720008D3720008B8
:10001000DD720008E1720008E572000800000000CF
:10002000000000000000000000000000E97200086D
:10003000EB72000800000000F77400084DA20008F1
:10004000FB740008FB740008FB740008D93C00082E
:10005000FB740008FB740008FB740008FB740008C4
:10006000FB740008FB740008FB740008FB740008B4
:10007000FB740008FB740008FB740008FB740008A4
:10008000FB740008FB740008FB740008FB74000894
:10009000FB740008FB740008FB740008FB74000884
:1000A000FB740008FB740008FB740008FB74000874
:1000B000E11200089D3D0008FB740008FB74000875
:1000C000FB740008FB740008FB740008FB74000854
:1000D000FB740008C51E0008FB74000849370008BF
:1000E000316F0008FB740008FB740008FB74000803
:1000F000FB740008FB740008FB740008FB74000824
:10010000FB740008FB740008FB740008FB74000813
:10011000C9390008FB740008895A0008093800082A
:10012000FB740008FB740008FB740008FB740008F3
:1001300000F002F800F06FF80AA090E8000C82448A
:100140008344AAF10107DA4501D100F064F8AFF267
:10015000090EBAE80F0013F0010F18BFFB1A43F0A5
:1001600001031847D0B50000F0B500000A444FF075
:10017000000C10F8013B13F0070408BF10F8014B06
:100180001D1108BF10F8015B641E05D010F8016B4B
:10019000641E01F8016BF9D113F0080F1EBF10F8AF
:1001A000014BAD1C0C1B09D16D1E58BF01F801CBD2
:1001B000FAD505E014F8016B01F8016B6D1EF9D555
:1001C0009142D6D37047000000230024002500266A
:1001D000103A28BF78C1FBD8520728BF30C148BFAA
:1001E0000B60704764290AF0298175290AF026817D
:1001F00078290AF05F8163290AF04F8473290AF095
:100200005484002070471FB59DE803000AF066FB88
:100210001FBD10B510BD0AF001FD1146FFF7F3FF39
:1002200000F00AF80AF01FFD03B4FFF7F2FF03BC69
:1002300001F0EAFD30BF000000F032F80122114663
:100240000CA004F08EFE04F092F800F087F800F0A5
:10025000DCF803F063FD012000F0ECF801F097FEFC
:1002600007E002F0BDFD00F0B7FE04F07BF906F0F8
:1002700058FEF6E7BBB6D3ADCAB9D3C3D6C7C4DC04
:10028000C5C5B6D3BBFA000010B54FF4A06007F0A7
:1002900047F910BD0121184A1160184908607047DC
:1002A00010B5FFF7F1FF09F0A0FF4FF4E13001F0C6
:1002B000BDFD134841684820884709F0D1FF03F08D
:1002C000E9FF002003F067FC04F0E2FD4FF4E130A9
:1002D00003F0EEFA04F0D6F905F002FC05F08BFD10
:1002E00006F073F80749012006F071FA06F07CFA6F
:1002F00006F076FE002010BD040000200000002063
:100300007C000020CB3200087CB5054600266846FC
:1003100004F00BFB06463EB90020009001906846B1
:1003200004F003FB064601E002207CBDA6B90024D0
:100330000EE0FE4800EBC401082268460AF0C2F94C
:1003400028B900982860019868600020EDE7641CD7
:10035000052CEEDB0120E8E70220E6E72DE9FE436D
:100360000126324602A9F24803F0F1F800BF5C21F1
:10037000F0A00AF0D3F928B15C21EEA00AF0CEF982
:10038000401C00E0EBA0074609F05DFF80469DF8A9
:1003900008006521ED4B3A46CDE900104146ECA03E
:1003A00009F0DCFF00BF9DF80800A3282BD0A32094
:1003B000029001252946DE4803F0D4F82A4602A916
:1003C000DB4803F09BF8002407E0D84901EBC400A8
:1003D000EE2208210AF011FA641C052CF5DB012538
:1003E0002946E44803F0BEF82A46E349E14803F011
:1003F00085F828252946E14803F0B4F82A46CB4978
:10040000DE4803F07BF8BDE8FE8310B5002401242C
:100410002246D949D74803F09AF8FF222821C34839
:100420000AF0EBF928242246C049D44803F08FF89B
:10043000BE4810BDF8B50446D1480078D1490870CF
:10044000CF480470022C21D10846007801281DD124
:1004500000BF5C21B7A00AF061F928B15C21B5A00A
:100460000AF05CF9401C00E0B2A0054609F0EBFE82
:10047000064640F2A110C44B2A4631460090C3A064
:1004800009F06CFF00BF06F0F4FE69E0012C20D1FA
:10049000BC48007802281CD106F0F9FE00BF5C21A0
:1004A000A4A00AF03BF928B15C21A2A00AF036F919
:1004B000401C00E09FA0054609F0C5FE064640F23C
:1004C000A710B14B2A4631460090BBA009F046FF69
:1004D00046E0082C21D1AB48007801281DD100BF8F
:1004E0005C2194A00AF01AF928B15C2191A00AF0CD
:1004F00015F9401C00E08FA0054609F0A4FE064651
:1005000040F2AB10A04B2A4631460090B5A009F04E
:1005100025FF00BF06F0ADFE22E0012C20D1994856
:10052000007808281CD106F0B2FE00BF5C2181A033
:100530000AF0F4F828B15C217EA00AF0EFF8401C24
:1005400000E07CA0054609F07EFE06464FF4D97017
:100550008D4B2A4631460090AEA009F0FFFE00BF49
:10056000F8BD2DE9F04194B00024002600250820B4
:10057000FFF760FF28210AA80AF069F900BF02E22C
:10058000642009F053FE0AA901EBC40004F0CDF980
:100590000646002E66D000BF5C2166A00AF0BEF8B9
:1005A00028B15C2163A00AF0B9F8401C00E061A00A
:1005B000074609F048FE80460AA800EBC400C0794F
:1005C0000AA901EBC40189790AAA02EBC402527993
:1005D000CDE90804CDE906210AA800EBC4000079A2
:1005E0000AA901EBC401C9780AAA02EBC4029278F5
:1005F0000AAB03EBC4035B78CDE90232CDE904100A
:100600000AA810F83400BC218E4B3A46CDE9001000
:1006100041468DA009F0A2FE00BF00BF5C2145A0AD
:100620000AF07CF828B15C2142A00AF077F8401C5F
:1006300000E040A0074609F006FE8046BD20814B41
:100640003A464146009090A009F088FE00BF012084
:10065000FFF7F0FE0122114695A004F082FC14B0D1
:10066000BDE8F081012C5EDB621E0AAB03EBC20128
:100670000AAA02EBC40008220AF024F8002852D08B
:1006800000BF5C212BA00AF049F828B15C2129A009
:100690000AF044F8401C00E026A0074609F0D3FD0C
:1006A0008046601E611E0AAA02EBC101C979621E62
:1006B0000AAB03EBC2029279631E0DF1280C0CEB1E
:1006C000C3035B79CDE90632CDE908100AA901EB35
:1006D000C0000079611E0AAA02EBC101C978621E3E
:1006E0000AAB03EBC2029278631E0CEBC3035B7888
:1006F000CDE90232CDE90410601E0AA911F83000DC
:10070000C421504B3A46CDE9001041466B4809F0F0
:1007100025FE00BF00BF5C2106A009F0FFFF18B155
:100720005C2104A0CCE02CE1CEE00000B808002061
:1007300000D807082E2E5C6170705C7077645C6175
:1007400070705F7077642E630000000014AD0008C5
:100750005B256C645D5B2538735D5B2538735D5B81
:10076000252D33645D5B494E464F5D3A2025780D5B
:100770000A00000000F007080C00002000F807083D
:10078000180000203C00002050AD00085B256C6480
:100790005D5B2538735D5B2538735D5B252D3364A8
:1007A0005D5B494E464F5D3A20BFD5CFD0B5BDCB3E
:1007B000A2BFA8200D0A00005B256C645D5B253894
:1007C000735D5B2538735D5B252D33645D5B494E3E
:1007D000464F5D3A20CBA2BFA8B5BDBFD5CFD02034
:1007E0000D0A00005B256C645D5B2538735D5B253D
:1007F00038735D5B252D33645D5B494E464F5D3A32
:1008000020BFD5CFD0B5BDD0B4D0C2BFA8200D0A6F
:10081000000000005B256C645D5B2538735D5B2523
:1008200038735D5B252D33645D5B494E464F5D3A01
:1008300020D0B4D0C2BFA8B5BDBFD5CFD0200D0A3F
:10084000000000001FAD00085B256C645D5B25386F
:10085000735D5B2538735D5B252D33645D5B494EAD
:10086000464F5D3A205B2578202578202578202585
:1008700078202578202578202578202578205D632C
:100880006E743A25640D0A005B256C645D5B253847
:10089000735D5B2538735D5B252D33645D5B494E6D
:1008A000464F5D3A2066616C736531200D0A000089
:1008B000B4E6B4A2CAA7B0DC0000000008B3000888
:1008C00009F02CFF401C01E0AFF29810074609F038
:1008D000BAFC80460AA800EBC400C1790AA800EB64
:1008E000C40082790AA800EBC40040790AAB03EB8C
:1008F000C4031B79CDE90530CDE907210AA800EB37
:10090000C400C0780AA901EBC4018A780AA901EBE6
:10091000C40149780AAB13F83430CDE90131CDE98F
:100920000320C520FE4B3A4641460090FDA009F049
:1009300015FD00BF00BF5C21AFF2082009F0EEFEFC
:1009400030B15C21AFF2142009F0E8FE401C01E058
:10095000AFF22020074609F076FC8046C620F04B17
:100960003A4641460090FEA009F0F8FC00BF012085
:10097000FFF760FD01221146AFF2CC0004F0F1FA5E
:100980006DE6601CC4B2042C7FF7FAAD00240AE0C7
:10099000FD4800EBC40108220AA809F093FE00B943
:1009A00003E0601CC4B2052CF2DB00BF052C31DA79
:1009B00000BF5C21AFF2842009F0B0FE30B15C21B1
:1009C000AFF2902009F0AAFE401C01E0AFF29C209B
:1009D000074609F038FC8046DB20D14B3A464146B9
:1009E0000090EAA009F0BAFC00BF0120FFF722FD49
:1009F00001221146F0A004F0B4FAF3480470012576
:100A00002946F24802F0AEFD2A46EF49EF4802F0CF
:100A100075FD24E6EC480078052802DB0020EA4951
:100A20000870D949E84A127801EBC200FF22082178
:100A300009F0E3FED448E449097800EBC1000A99C3
:100A400001600B994160E0480078401CDE49087065
:100A500001252946DD4802F085FD2A46DA49DB48B2
:100A600002F04CFD28252946D94802F07BFD2A4694
:100A7000C549D74802F042FD0120FFF7DBFC012207
:100A80001146D4A004F06DFA00BF5C21AFF25C30D7
:100A900009F044FE30B15C21AFF2683009F03EFE4F
:100AA000401C01E0AFF27430074609F0CCFB8046F1
:100AB000F6209B4B3A4641460090C9A009F04EFCF7
:100AC00000BF00BFCBE5F0B58BB0CE4CD4E902013E
:100AD00045180822CC49204609F0AAF800BF5C213D
:100AE000AFF2B03009F01AFE30B15C21AFF2BC3089
:100AF00009F014FE401C01E0AFF2C830064609F0D0
:100B0000A2FB07464FF4A171E068C04B3246CDE925
:100B100000103946BEA009F021FC00BFA089C0F337
:100B2000C700C749087008460078401EC54901EB58
:100B3000C0002968016069684160C1480078C24905
:100B40000978401AC149087000BF5C21AFF21C400F
:100B500009F0E4FD30B15C21AFF2284009F0DEFD80
:100B6000401C01E0AFF23440064609F06CFB07463A
:100B7000B3480078401EB34901EBC000C079B049CA
:100B80000978491EAF4A02EBC1018979AC4A127853
:100B9000521EAC4B03EBC2025279A94B1B785B1E71
:100BA000DFF8A0C20CEBC3031B79CDE90632CDE917
:100BB0000810A3480078401E614601EBC000C078D1
:100BC0009F490978491E624602EBC10189789C4A17
:100BD0001278521E634603EBC2025278984B1B7880
:100BE0005B1E1CF83330CDE90232CDE90410944885
:100BF000007840F24B11854B3246CDE90010394662
:100C0000934809F0ABFB00BF0BB0F0BD70B58AB0E4
:100C10007D48FFF779FBC4B224B1012C5DD0022CD2
:100C200061D159E000BF5C21AFF2F84009F076FDD8
:100C300030B15C21AFF2045009F070FD401C01E0BE
:100C4000AFF21050054609F0FEFA06464FF48970DF
:100C5000804B2A46314600907FA009F07FFB00BF01
:100C600000BF5C21AFF2345009F058FD30B15C2177
:100C7000AFF2405009F052FD401C01E0AFF24C5081
:100C8000054609F0E0FA06465F48C0795E49897971
:100C90005D4A52795C4B1B79CDE90532CDE90710ED
:100CA0005948C27881784078574B1B78CDE901309C
:100CB000CDE9031240F21310664B2A4631460090EC
:100CC00018A009F04BFB00BF04F01CFFFFF7FBFE70
:100CD00000206B49087007E006E00122114669A078
:100CE00004F03FF900E000BF00BF0AB070BDF0B5EE
:100CF0008DB000200B900C90424C2169A0684518E3
:100D000008220BA9204608F0CDFF00BF5C21AFF2FE
:100D1000DC5009F003FD08B15C21B7E0BCE0000045
:100D20001FAD00085B256C645D5B2538735D5B253A
:100D300038735D5B252D33645D5B494E464F5D3AEC
:100D4000205B257820257820257820257820257897
:100D5000202578202578202578205D0D0A000000C8
:100D60005B256C645D5B2538735D5B2538735D5B6B
:100D7000252D33645D5B494E464F5D3A2066616CBC
:100D8000736532200D0A0000B80800205B256C64F2
:100D90005D5B2538735D5B2538735D5B252D3364A2
:100DA0005D5B494E464F5D3A20B8C3BFA8D2D1BE65
:100DB000ADB4E6D4DA0D0A00B4CBBFA8D2D1BEAD33
:100DC000B4E6D4DA000000000C00002000F00708B0
:100DD00000F80708B4E6B4A2B3C9B9A60000000041
:100DE0005B256C645D5B2538735D5B2538735D5BEB
:100DF000252D33645D5B494E464F5D3A204F4B0DC8
:100E00000A0000001C0000203100002037AD00085F
:100E10005B256C645D5B2538735D5B2538735D5BBA
:100E2000252D33645D5B494E464F5D3A2066696609
:100E30006F205B77726974652025645D0D0A000080
:100E400008000020E0080020090000200A0000201F
:100E5000C0B200082BAD00085B256C645D5B2538D3
:100E6000735D5B2538735D5B252D33645D5B494E97
:100E7000464F5D3A20CBA2BFA8B3C9B9A60D0A0060
:100E800030000020CEDED0A7BFA80000AFF25C701B
:100E900009F044FC401C01E0AFF26870064609F01E
:100EA000D2F907464FF4B5712069554B3246CDE96A
:100EB0000010394653A009F051FA00BF208AC0F350
:100EC000C7005C4908705C4800780978401A5B49A3
:100ED000087058480078401E594901EBC000296845
:100EE00001606968416000BF5C21AFF2B87009F031
:100EF00015FC30B15C21AFF2C47009F00FFC401C4E
:100F000001E0AFF2D070064609F09DF90746494866
:100F10000078401E4A4901EBC000C0794549097874
:100F2000491E474A02EBC1018979424A1278521E92
:100F3000434B03EBC20252793E4B1B785B1EDFF83A
:100F400000C10CEBC3031B79CDE90632CDE90810D3
:100F500038480078401E614601EBC000C178354832
:100F60000078401E624602EBC0008278314800786B
:100F7000401E634603EBC00040782E4B1B785B1E7F
:100F80001CF83330CDE90230CDE90421294800783E
:100F90004FF4B9711A4B3246CDE900103946294851
:100FA00009F0DCF900BF0DB0F0BD274800787047AC
:100FB00010B50122114625A003F0D3FF0220FFF750
:100FC00039FA10BD10B50122114622A003F0C9FF65
:100FD0000120FFF72FFA10BD10B51B48007801283B
:100FE00004D0022805D0042807D105E006F00AF94C
:100FF00004E0FFF70BFE01E000E000BF00BF10BD02
:1010000043AD00085B256C645D5B2538735D5B2533
:1010100038735D5B252D33645D5B494E464F5D3A09
:10102000206669666F205B726561642025645D0DD2
:101030000A00000009000020080000200A0000202B
:10104000E0080020C0B2000818000020C7EBCBA2C7
:10105000BFA80000CBA2BFA8BDE1CAF800000000F5
:1010600010B58CB004461E230BAA03A9204600F03D
:10107000CFFC0090009810B101200CB010BD9DF87D
:101080002C00044400200B900EE0F8489DF82C2022
:1010900050F8221003A800F023FC00B908E09DF8E6
:1010A0002C00401CC0B20B909DF82C000728ECD3FC
:1010B00000BF9DF82C00072875D2DFE800F004057A
:1010C0000C2E5C88B30000BFE9A009F047F9E9A045
:1010D00009F044F9D3E0E6A009F040F9E8A009F0EE
:1010E0003DF900200B900EE0F54800689DF82C209B
:1010F00000EBC2004168F3A009F030F99DF82C0024
:10110000401CC0B20B90EE48007D9DF82C10884228
:10111000EADCD7A009F022F9B1E0D5A009F01EF968
:10112000EAA009F01BF900200B901AE0E4490968D5
:101130009DF82C2001EBC20101AB02AA486803A96B
:1011400000F08CFCDE4800689DF82C1050F831202F
:1011500003A9EEA009F002F99DF82C00401CC0B2D2
:101160000B90D748007D9DF82C108842DEDCC0A093
:1011700009F0F4F883E0BEA009F0F0F80BAA03A987
:10118000204600F047FD9DF82C00D0B9694603A821
:1011900000F0D9FB0B909DF82C0028B9E0A0009935
:1011A00009F0DCF80FE068E09DF82C00042801D07D
:1011B000022062E7DDA009F0D1F80120C049C8751E
:1011C00001E0022059E7AAA009F0C8F857E0A8A05A
:1011D00009F0C4F80BAA03A9204600F01BFD9DF8F6
:1011E0002C00C8B9694603A800F0ADFB0B909DF830
:1011F0002C0020B9D2A0009909F0B0F80EE09DF8BB
:101200002C00042801D0022037E7D0A009F0A6F86E
:101210000020AB49C87501E002202EE794A009F038
:101220009DF82CE092A009F099F80BAA03A920469A
:1012300000F0F0FC9DF82C00C8B9694603A800F046
:1012400082FB0B909DF82C0078B99D49009881F89D
:10125000EC00084690F8EC0018B1C1A009F07EF847
:1012600007E0C6A009F07AF803E0022005E70220B3
:1012700003E77FA009F072F801E00120FDE600BF5E
:101280000020FAE64FF08040008A20F001004FF085
:10129000804108824FF6FF70888500208884884945
:1012A000C1F8F00070474FF08040008A00F0010064
:1012B00040B18348D0F8F0004FF6FF7108448049F0
:1012C000C1F8F0007E48D0F8F0004FF08041898CE2
:1012D00008447B49C1F8F0000846D0F8F000704798
:1012E00010B54FF08040008A00F0010048B1744909
:1012F0000869804700204FF0804188844FF47A705D
:1013000088854FF08040008A20F001004FF0804136
:10131000088210BD7FB505460C460121084607F03E
:10132000CAF8ADF80850ADF804400020ADF80A0046
:10133000ADF8060001A94FF0804007F011FC012232
:101340004121880707F083FF1C208DF8000003204F
:101350008DF801008DF8020001208DF80300684629
:1013600006F0E3F80121880707F056FF7FBD10B5AE
:10137000044604EBC40000EB04100122C2EB800021
:1013800081B24FF47A70FFF7C5FF01204C49C87550
:1013900010BD30B595B0054613AB12AA09A9284671
:1013A00000F05CFB044614B1204615B030BD0020AF
:1013B000149026E0424909689DF8502001EBC201D3
:1013C00013AB11AA486801A900F048FB04460CB110
:1013D0002046EAE709A901A800F082FA60B99DF861
:1013E00044009DF84810884201DD0220DDE79DF8A9
:1013F0005000334988750AE09DF85000401CC0B287
:1014000014902F48007D9DF850108842D2DC00BF18
:101410002B48007D9DF85010884201D10420C4E77C
:1014200014A9284600F067FC04460CB12046BCE72E
:101430009DF85000224948750020B6E72DE9F0419B
:101440009AB01F48847D007DA04202DC1AB0BDE83E
:10145000F0811B49096801EBC40106AB07AA486883
:1014600008A900F0FBFA0026DBE0000040000020A5
:101470000D0A0000D6B8C1EECAA7D0A70D0A000019
:101480002D2D2D2D2D2D2D2D2D2D2D2D2D2D2D2D8C
:101490002D2D2D2D2D2D2D2D2DBAAFCAFDC7E5B526
:1014A000A52D2D2D2D2D2D2D2D2D2D2D2D2D2D2DF4
:1014B0002D2D2D2D2D2D2D2D2D2D2D2D200D0A00D9
:1014C0007C00002025730D0A000000002D2D2D2D1D
:1014D0002D2D2D2D2D2D2D2D2D2D2D2D2D2D2D2D3C
:1014E0002D2D2D2D2DBAAFCAFD204944202D2D2D97
:1014F0002D2D2D2D2D2D2D2D2D2D2D2D2D2D2D2D1C
:101500002D2D2D2D2D2D2D2D200D0A00257320691B
:10151000642069733A0D0A3058253038580D0A0096
:101520004845583A305825580D0A00003136BDF864
:10153000D6C6B2CECAFDCFD4CABE210D0A00000065
:101540004445433A256C750D0A0000003130BDF862
:10155000D6C6B2CECAFDCFD4CABE210D0A00000045
:1015600052756E2054696D652043616C63756C61C2
:1015700074696F6E204F4E0D0A00000052756E2088
:1015800054696D652043616C63756C6174696F6E3D
:10159000204F46460D0A0000AD48008B0121B140A6
:1015A0000840D8B12221ABA008F0D8FE304600F0A8
:1015B00095FBA749243147183946A7A008F0CEFE6D
:1015C0002221A4A008F0CAFE304600F087FBA04903
:1015D0002431084410A941F8260018E0304600F0F4
:1015E0007DFB9B492431085810A941F826009848F2
:1015F000C07D30B910A850F8261098A008F0AEFEB3
:1016000005E010A850F8261095A008F0A7FE9DF858
:101610001C00401EB04202D093A008F09FFE701C38
:10162000C6B29DF81C008642B6DBFFF72BFE884849
:10163000407D0B280DD2DFE800F0060D151E273285
:101640003F4E5F7287008249096851F83400804735
:10165000054690E07E4A126852F834101098884788
:10166000054688E07A4B1B6853F83420DDE9100109
:10167000904705467FE0764F3F6857F8343010A812
:1016800007C89847054676E0DFF8C4C1DCF800C01B
:101690005CF8347010A80FC8B84705466BE0149882
:1016A000DFF8ACC10090DCF800C05CF8347010A822
:1016B0000FC8B84705465EE0DDE91401DFF890C1C8
:1016C000CDE90001DCF800C05CF8347010A80FC848
:1016D000B84705464FE0DDE914121698DFF870C1EF
:1016E000CDE900120290DCF800C05CF8347010A85C
:1016F0000FC8B84705463EE0DDE91423DDE91610C2
:10170000DFF84CC1CDE90023CDE90210DCF800C0C0
:101710005CF8347010A80FC8B84705462BE0DDE927
:101720001523DDE91710CDE90123CDE90310149845
:10173000DFF81CC10090DCF800C05CF8347010A821
:101740000FC8B847054616E0DDE91623DDE9181095
:10175000CDE90223CDE90410DDE91401DFF8F0C082
:10176000CDE90001DCF800C05CF8347010A80FC8A7
:10177000B847054600BF00BFFFF795FD9DF818006C
:1017800001280CD13248C07D20B9294637A008F085
:10179000E5FD08E0294637A008F0E0FD03E0AFF2E0
:1017A000303008F0DBFD2A4890F8EC0088B128487A
:1017B000D0F8F0000A21B0FBF1F201FB1207244837
:1017C000D0F8F000B0FBF1F83A4641462CA008F002
:1017D000C5FD00BF3AE670B53148008800F400400E
:1017E000002833D02E48057800202E494855184847
:1017F00081682C48884704461CB91549C868804749
:1018000021E02848FFF72CFC0546012D00D02C468E
:10181000CCB1012C06D0022C08D0032C0AD0042C09
:1018200010D10BE020A008F099FD0BE021A008F0FA
:1018300095FD07E022A008F091FD03E023A008F049
:101840008DFD00BF00BF00201549088070BD00005D
:101850007C0000202563000025730000256C7500C6
:1018600030582558000000002C0000003D256C7504
:101870003B0D0A003D305825583B0D0A0000000082
:1018800046756E6374696F6E2052756E2054696D73
:10189000653A25642E2531646D730D0A0000000041
:1018A00074010020E00C0020BAAFCAFDB4EDCEF305
:1018B000210D0A00B2CECAFDB4EDCEF3210D0A000F
:1018C000B2CECAFDCCABB6E0210D0A00CEB4D5D263
:1018D000B5BDC6A5C5E4B5C4BAAFCAFD210D0A00A1
:1018E00002460AE010780B78984201D00120704738
:1018F000107800B902E0521C491CF3E700BF002039
:10190000F5E706E002780A70027802B902E0401CAE
:10191000491CF7E700BF70470146002005E00A7840
:1019200002B903E0421CD0B2491CF8E700BF70477F
:1019300010B50246012000E050430B1EA1F1010446
:10194000E1B2F9D110BD2DE9F04307460E4600255E
:101950004FF00A083C46002030601FE0207839280C
:1019600002DC207830280ADA2078462802DC207849
:10197000412804DA2078582809D1012D07D1207890
:10198000412801DB4FF01008681CC5B205E0207843
:1019900000B904E00120BDE8F083641CDEE700BF6D
:1019A0003C46B8F1100F0FD1032D01DA0220F2E707
:1019B0002078302806D16078582803D1A41CA81EAE
:1019C000C5B204E00320E6E70DB90420E3E71BE01D
:1019D0000DB1681EC5B22078392806DC2078302881
:1019E00003DB2078A0F1300902E02078A0F137096C
:1019F00029464046FFF79CFF316809FB0010306024
:101A0000641C207800B900E0E2E700BF0020C2E7D4
:101A100010B50446002010700BE020780870641C9C
:101A2000491C1078401C10701078984201DB01208E
:101A300010BD2078202802D020780028EDD1002089
:101A4000087000BFF4E70146491C00E0491C087813
:101A5000202801D10029F9D1087870472DE9FF4FDE
:101A600085B080468946002700200490039001201D
:101A700002904FF0000B002544461DE020782028FE
:101A800016D005F07F00052812DA0DB945F0800563
:101A900005F07F00042803D120782A2800D00EE02A
:101AA000207805F07F010DF80100681CC5B202E046
:101AB000852D00D103E0641C20780028DED100BF12
:101AC0008DB1002005F07F010DF80100CBA1684623
:101AD000FFF706FF18B900210898017002E0012104
:101AE0000898017000254FF0000A444614E0641C79
:101AF0000AF1010000F0FF0A2078202802D02078A7
:101B00002A2809D12046FFF79EFF0646282E03D03B
:101B10002A2E01D0CDF810A02078282802D02078D5
:101B20000028E4D14446049810B10498401C0444B1
:101B30004FF0000A002654E0207810B94FF0010A57
:101B400050E02078282803D116B9781CC7B213E0DA
:101B50002078292808D13EB917B1781EC7B201E014
:101B60004FF0010A47B93DE02078222804D10EB990
:101B7000012000E00020064647B9207820282FD019
:101B8000207889F8000009F1010929E020782C2843
:101B900004D101200290681CC5B214E020782028EE
:101BA00011D0207828280ED04DB9BBF1050F06DAE8
:101BB00020780DF80B000BF1010000F0FF0B0298EC
:101BC000401CC0B20290012F0AD10298022807D10E
:101BD0000298401CC0B202900398401CC0B203900F
:101BE000641CA9E700BF0398012809D100200DF863
:101BF0000B0082A16846FFF773FE08B9002003902E
:101C0000079903980870002089F80000504609B031
:101C1000BDE8F08FF0B503461546002000220026EF
:101C2000002455E01F782C2F01D104B901221F7820
:101C3000292F01D01F780FB904B94AE0002E34D102
:101C40001F78302F02DB1F78392F11DD1F78612FAD
:101C500002DB1F78662F0BDD1F78412F02DB1F7818
:101C6000462F05DD1F78582F02D01F78782F0CD112
:101C700002B12EE01F78612F03DB1F78203F0F7029
:101C800001E01F780F70491C1FE01F78222F04D13C
:101C900002B11EE00126012417E01F78202F14D086
:101CA0001F782C2F11D0FF2613E01F78222F00D190
:101CB000002402B10DE044B11F785C2F02D15B1CFF
:101CC000471CF8B21F780F70491C471CF8B25B1C08
:101CD000A8E700BF00270F702E70F0BD024600205D
:101CE000002105E0474B5B5C0344D8B24B1CD9B2E2
:101CF0009142F7DB70472DE9F043B5B005460F463A
:101D00000024002604E000213E488155701CC6B224
:101D10000A2EF8DB06E06D1C287818B9012035B0D2
:101D2000BDE8F08328782828F5D16D1C61E034AA3D
:101D300069462846FFF76EFF064635449DF8D000F9
:101D400020B1012827D0FF284CD149E09DF80000A0
:101D500000B333A96846FFF7F6FD06460EB1022030
:101D6000DDE72046FFF7BAFF26490A31339A0A50C9
:101D7000A1F12400008B0121A140884321491A3997
:101D8000088304211F480155601CC4B20A2C01DDE0
:101D90000320C4E726E06846FFF7BEFD401C00F0C4
:101DA000FF082046FFF79AFF16490A3100EB0109A8
:101DB00049466846FFF7A5FD12481A38018B0120F5
:101DC000A040014388B20F491A3908830D4800F832
:101DD0000480601CC4B20A2C01DD03209FE701E0EF
:101DE00002209CE700BF2878292801D0287800B974
:101DF00000E09CE700BF3C70002090E7766F6964CC
:101E00000000000096000020014600BF704700BFA0
:101E10004B4A128802F04002002AF9D0C2B2484B65
:101E20001B1D1A807047014600BF704710B586B071
:101E30000446012144F2040006F030FB4FF4007028
:101E4000ADF8140003208DF8160018208DF8170047
:101E500005A93C4806F000F84FF48060ADF8140086
:101E600004208DF8170005A9364805F0F5FF252058
:101E70008DF8000003208DF801008DF8020001208C
:101E80008DF80300684605F050FB01940020ADF882
:101E90000800ADF80A00ADF80C00ADF810000C20F9
:101EA000ADF80E0001A9264807F0D7FC012240F248
:101EB0002551234807F069FD0121214807F059FD0C
:101EC00006B010BD10B540F225511D4807F042FE86
:101ED00010B31B4807F0BEFDC4B21B48008800F4D5
:101EE0000040C8B91848008800F4804060B10A2C4E
:101EF00003D000201449088020E01348008840F4F3
:101F000000401149088019E00D2C06D10E480088C8
:101F100040F480400C49088010E00B480088C0F372
:101F20000D000A490C5408480088401C06490880E6
:101F300008460088C72801DD0020088010BD000089
:101F4000003801400008014074010020E00C00202E
:101F500010B5FF21354808F058FC002034490880AE
:101F60003449087010BD70B504460D462946204618
:101F700001F01CFD022130A001F018FD70BD70B50C
:101F800004460D462946204601F010FD70BD2DE99E
:101F9000FC410024002500BF43E028A130A000F050
:101FA00061F90546002D1AD000BF5C212FA008F072
:101FB000B5FB28B15C212DA008F0B0FB401C00E06F
:101FC0002AA0064608F03FF907465120314B324619
:101FD0003946CDE9000530A008F0C0F91FE0012224
:101FE00011463DA002F0BDFF00BF5C211FA008F01C
:101FF00095FB28B15C211DA008F090FB401C00E07F
:102000001AA0064608F01FF907465820214B324611
:102010003946009034A008F0A1F900BF03E0601C2D
:10202000C4B2042CB9DB00BFBDE8FC816C130020F6
:10203000AA010020AC0100200D0A000033313065F8
:102040006265363864393638343666653938323048
:102050006435366461646135616262390000000094
:10206000746573746C696E65000000002E2E5C61EF
:1020700070705C57694669546F436C6F75645C4857
:10208000414C5F57694669546F436C6F75642E63AA
:102090000000000060AD00085B256C645D5B2538C6
:1020A000735D5B2538735D5B252D33645D5B455245
:1020B000524F5D3A20436F6E6E65637420546F20FB
:1020C000536572766572204552524F522025642026
:1020D0002C20200D0A000000C1ACBDD3D4C6C6BD63
:1020E000CCA8B3C9B9A600005B256C645D5B25383C
:1020F000735D5B2538735D5B252D33645D5B4552F5
:10210000524F5D3A20436F6E6E65637420546F20AA
:10211000536572766572204F4B0D0A0010B5FFF7BC
:1021200017FF0F21D7A0FFF71EFFDA4808F0A5F828
:10213000D9A1DA4808F0B4FA10B94FF0FF3010BD59
:102140000020FCE770B5A0B004460D46802168462B
:1021500008F07DFBFFF7FCFE2B462246D0A1684627
:1021600008F008F9684608F0E4FAC6B23146684655
:10217000FFF7F9FED04808F080F8C7A1C74808F07B
:102180008FFA18B94FF0FF3020B070BD0020FBE788
:1021900070B5A0B004460D468021684608F057FB94
:1021A000FFF7D6FE2B462246C4A1684608F0E2F8A7
:1021B000684608F0BEFAC6B231466846FFF7D3FE5D
:1021C000C54808F05AF8B4A1B44808F069FA18B93B
:1021D0004FF0FF3020B070BD0020FBE72DE9F0414B
:1021E000A0B006460C46002500278021684608F06E
:1021F0002EFBFFF7ADFE2246B8A1684608F0BAF8FC
:10220000684608F096FA00F0FF0841466846FFF776
:10221000AAFE40F6B83008F030F89FA19F4808F0B9
:102220003FFA18B9681E20B0BDE8F081FFF790FEB4
:1022300021463046FFF7A3FE00250EE0ABA19748EC
:1022400008F02EFA10B96FF0010701E0002706E050
:10225000904808F012F8681CC5B23C2DEEDB00BFB8
:102260003846E0E72DE9F041A0B006460F460024CD
:1022700000258021684608F0EAFA00BF08E0FFF771
:102280004DFF08B9002505E04FF0FF35601CC4B2D2
:10229000032CF4DB00BF002D03DA284620B0BDE894
:1022A000F08100240AE093A195A0FFF74BFF08B945
:1022B000002505E06FF00105601CC4B2032CF2DBC1
:1022C00000BF002D01DA2846E8E700240BE042F2C7
:1022D00060218DA0FFF75CFF08B9002505E06FF0D5
:1022E0000205601CC4B2032CF1DB00BF002D01DA33
:1022F0002846D3E73B46324687A1684608F03AF8BD
:10230000684608F016FA00F0FF0841466846FFF7F5
:1023100065FF002802DA6FF0030514E000240FE0E7
:102320008AA15E4808F0BCF910B96FF0040501E01D
:10233000002507E042F2107007F09FFF601CC4B256
:10234000322CEDDB00BF2846A8E72DE9F041A0B014
:1023500004460D46002600278021684608F077FADB
:1023600023462A467CA1684608F004F8684608F02F
:10237000E0F900F0FF0841466846FFF72FFF00280C
:1023800001DA771E14E000260FE070A1434808F040
:1023900087F910B94FF0FF3701E0002707E042F25C
:1023A000107007F06AFF701CC6B2322EEDDB00BF62
:1023B000384620B0BDE8F0812DE9F04107460E46D1
:1023C0000024002574A1384608F06AF90446E4B1F7
:1023D000A1796079303800EB800001EB40003038A3
:1023E000C5B26FA1384608F05BF9441C2A46214665
:1023F000304608F0BDF900207055314669A007F05D
:10240000ADFF29466CA007F0A9FF2846BDE8F08182
:1024100010B504466DA1204608F042F920B106210E
:102420006CA0FFF7DBFE2BE06CA1204608F038F92A
:10243000002825D06BA1204608F032F950B16DA1DB
:10244000204608F02DF900281AD0062161A0FFF7D8
:10245000C5FE15E06AA1204608F022F980B165A109
:10246000204608F01DF918B16AA007F077FF07E0D1
:102470006BA1204608F014F910B16CA007F06EFFB4
:1024800010BD000041542B43574D4F44455F435509
:10249000523D3100A08601004F4B00006C1300201C
:1024A00041542B43574A41505F4355523D222573B7
:1024B000222C22257322000060EC530041542B4350
:1024C000495053544152543D22544350222C22250A
:1024D00073222C256400000060E3160041542B4356
:1024E000495053454E443D256400000053454E4439
:1024F000204F4B0074657374746573743100000071
:1025000053746566616E00003132302E37372E35D8
:10251000382E3334000000007B2274223A312C2202
:10252000646576696365223A222573222C226B65E5
:1025300079223A222573222C22766572223A22765B
:10254000302E302E302E30227D0000002273746138
:10255000747573223A3000007B2274223A332C22A5
:102560006461746174797065223A312C22646174FB
:102570006173223A7B22616C61726D223A7B222563
:1025800073223A25647D7D2C226D73676964223A3B
:102590003030317D000000002B4950442C000000F9
:1025A0003A000000CAD5B5BD4950CAFDBEDDA3BA88
:1025B00025730D0A00000000CAD5B5BD4950CAFDFB
:1025C000BEDDB3A4B6C83D25640D0A0024234154E2
:1025D000230D0000244F4B23230D00002274223AC8
:1025E0003500000022617069746167223A226374C9
:1025F000726C22002264617461223A310000000092
:1026000022617069746167223A22646566656E733F
:1026100065220000B2BCB7C0A3A10D0A00000000F3
:102620002264617461223A3000000000B3B7B7C081
:10263000A3A10D0A000000002DE9F047A2B0044656
:102640000D4616460027B846B946802102A808F074
:10265000FEF833462246F8A102A8009507F08AFE4C
:1026600000BF02A808F065F800F0FF0A514602A872
:10267000FFF7B4FD002802DA4FF0FF3814E000271E
:102680000FE0FCA1FE4808F00BF810B94FF0FF383E
:1026900002E04FF0000806E0FA4807F0EEFD781C73
:1026A000C7B2322FEDDB00BFB8F1000F07D0B9F190
:1026B000020F04DA09F1010000F0FF09D1E74046FA
:1026C00022B0BDE8F0872DE9F04107460E46002410
:1026D00000258021EC4808F098F83246EBA1EA4842
:1026E00007F048FEE849384607F0DAFF044614B917
:1026F0000020BDE8F081E44808F01BF845B22C4406
:102700008021E14808F081F800250DE02078392883
:1027100006DC2078302803DB2078DB49485500E0D0
:1027200004E0681C45B2641C0A2DEFDB00BF0021E9
:10273000D54A681C11541046DBE72DE9F047804666
:102740000E460024A146002700258021D14808F02C
:102750005CF83246D0A1CF4807F00CFECD49404688
:1027600007F09EFF04462CB9CDA007F0F7FD00202E
:10277000BDE8F087C74807F0DCFF45B22C44802154
:10278000C44808F042F800250DE02078392806DC1E
:102790002078302803DB2078BE49485500E004E06B
:1027A000681C45B2641C0A2DEFDB00BF0021B94A4A
:1027B000681C1154104607F0BCFF00F0FF09B9F186
:1027C000010F06D0B9F1020F08D0B9F1030F26D1DD
:1027D00010E0B04800783038C7B221E0AD4840780A
:1027E0003038AC490978303901EB810100EB410008
:1027F000C7B215E0A74880783038A6490978303943
:1028000001EBC10202EB011100EB8101A14840780C
:10281000303800EB800001EB4000C7B200E000BFA1
:1028200000BF3846A4E72DE9F041A2B004460025D8
:1028300000269EA1204607F033FF002839D006214C
:102840009CA0FFF7CBFC002819DA00BF5C219BA0FD
:1028500007F064FF28B15C2198A007F05FFF401CDF
:1028600000E096A0074607F0EEFC8046C6209B4B92
:102870003A46414600909AA007F070FD4AE200BF38
:102880005C218EA007F04AFF28B15C218BA007F0E5
:1028900045FF401C00E089A0074607F0D4FC8046B5
:1028A000CA208E4B3A46414600909AA007F056FD4A
:1028B00030E2A3A1204607F0F3FE0028DED0A2A15B
:1028C000204607F0EDFE002870D0802102A807F016
:1028D000BEFFA3A1204607F0E3FE002849D000BFB9
:1028E0005C2176A007F01AFF28B15C2173A007F0E5
:1028F00015FF401C00E071A0074607F0A4FC8046CD
:10290000D420764B3A464146009098A007F026FD29
:1029100000BFFEF74DFB9FA12046FFF7D4FE054602
:102920002A469EA102A807F025FD02A807F001FF94
:10293000C7B2394602A8FFF751FC00289EDA00BF53
:102940005C215EA007F0EAFE28B15C215BA007F0E5
:10295000E5FE401C00E059A0074607F074FC8046E5
:10296000DC205E4B3A464146009096A007F0F6FC0C
:10297000D0E1A0A1204607F093FE002898D000BF28
:102980005C214EA007F0CAFE28B15C214BA007F0E5
:10299000C5FE401C00E049A0074607F054FC8046F5
:1029A000E1204E4B3A464146009000E033E094A0CF
:1029B00007F0D4FC00BFFEF705FB76A12046FFF729
:1029C00082FE05462A4698A102A807F0D3FC02A879
:1029D00007F0AFFEC7B2394602A8FFF7FFFB002899
:1029E000C6DA00BF5C2135A007F098FE28B15C2153
:1029F00032A007F093FE401C00E030A0074607F02D
:102A000022FC8046E920354B3A46414600906DA0B5
:102A100007F0A4FC7EE18EA1204607F041FE0028CD
:102A2000A6D0802102A807F012FF8FA12046FFF751
:102A300084FE064657A11BE17B2274223A332C22E6
:102A40006461746174797065223A322C2264617415
:102A50006173223A7B222573223A7B222573223A24
:102A600025647D7D2C226D73676964223A30303194
:102A70007D00000022737461747573223A30000087
:102A80006C13002040420F00280E002022257322E4
:102A90003A000000320E0020222573223A22000064
:102AA000BFD5D7D6B7FBA3A10D0A000024234154FC
:102AB000230D0000244F4B23230D00002E2E5C61BC
:102AC00070705C57694669546F436C6F75645C61E4
:102AD00070705F636C6F75642E6300006DAD0008ED
:102AE0005B256C645D5B2538735D5B2538735D5BCE
:102AF000252D33645D5B494E464F5D3A20B7A2CB2E
:102B0000CDD0C4CCF8B0FCCAA7B0DCA3A10D0A0D8F
:102B10000A0000005B256C645D5B2538735D5B25F6
:102B200038735D5B252D33645D5B494E464F5D3ADE
:102B300020D0C4CCF8B0FCA3A10D0A0D0A000000FF
:102B40002274223A350000002261706974616722A4
:102B50003A22626F6F6C5F776F726B220000000029
:102B60002264617461223A31000000005B256C64CC
:102B70005D5B2538735D5B2538735D5B252D3364A4
:102B80005D5B494E464F5D3A20BFAACABCC8A1BA98
:102B9000C50D0A00636D6469640000007B22742225
:102BA0003A362C22636D646964223A25732C2273B1
:102BB0007461747573223A302C2264617461223A14
:102BC000317D00005B256C645D5B2538735D5B25A2
:102BD00038735D5B252D33645D5B494E464F5D3A2E
:102BE00020B7A2CBCDCFECD3A6CAA7B0DCA3A10D52
:102BF0000A0000002264617461223A300000000083
:102C00005B256C645D5B2538735D5B2538735D5BAC
:102C1000252D33645D5B494E464F5D3A20D4DDCDB2
:102C2000A3C8A1BAC50D0A007B2274223A362C2211
:102C3000636D646964223A25732C22737461747520
:102C400073223A302C2264617461223A307D000094
:102C500022617069746167223A226E756D626572D5
:102C60005F646F776E220000646174610000000091
:102C70002046FFF728FD05462A46AFF2E00102A8EC
:102C800007F078FB02F071FC02A807F052FDC7B212
:102C9000394602A8FFF7A2FA00281DDA00BF5C211E
:102CA000AFF2E81007F03AFD30B15C21AFF2F4105A
:102CB00007F034FD401C01E0AFF20020074607F0AA
:102CC000C2FA8046F720844B3A4641460090AFF264
:102CD0000C1007F043FB00BF00BF5C21AFF22420C3
:102CE00007F01CFD30B15C21AFF2302007F016FD7B
:102CF000401C01E0AFF23C20074607F0A4FA8046F2
:102D0000FA20754B3A464146CDE9000673A007F01C
:102D100025FB00BF22B0BDE8F0812DE9F041A2B053
:102D20000646002500247AA1304607F0B9FC0028A9
:102D30004DD0802102A807F08AFD7BA1304607F024
:102D4000AFFC044604B1083400BF5C21AFF294200C
:102D500007F0E4FC30B15C21AFF2A02007F0DEFC0C
:102D6000401C01E0AFF2AC20074607F06CFA804649
:102D70004FF48D706E4B3A464146CDE900046DA08C
:102D800007F0ECFA00BF78A1204607F083FC054667
:102D900000BF5C21AFF2DC2007F0C0FC30B15C2149
:102DA000AFF2E82007F0BAFC401C01E0AFF2F420DB
:102DB000074607F048FA80464FF48E705C4B3A465F
:102DC0004146CDE9000569A007F0C8FA00BF25B16A
:102DD00001221146284602F0C4F822B0BDE8F08175
:102DE00070B592B000246F48007878B16E496F4892
:102DF000FFF7E2FA6C48FFF716FD6B48FFF78DFF0F
:102E00008021694807F001FDFFF7A2F807F01BFADF
:102E100067490968401A40F6B831884201D3012059
:102E200000E00020002854D007F00DFA6049086047
:102E300000F0E2FE5F4880785E4949785D4A12788A
:102E40005C4BDB79CDE90032CDE90210594883793A
:102E5000828859A105A807F08DFA05AA5B48017878
:102E60005BA0FFF7E9FB0446FFF772F834B15B485B
:102E70000078401C40B25949087002E000205749D0
:102E80000870564890F90000032822DD00205349BD
:102E9000087000BF5C21AFF2DC3007F03FFC30B1BE
:102EA0005C21AFF2E83007F039FC401C01E0AFF2E2
:102EB000F430054607F0C7F9064640F25910484B72
:102EC0002A463146009047A007F048FA00BFFFF7B6
:102ED0005EF812B070BD00006DAD00085B256C643B
:102EE0005D5B2538735D5B2538735D5B252D336431
:102EF0005D5B494E464F5D3A20C9E8D6C3BCF5D468
:102F0000B1C8CBCAFDA3BA2564A3A10D0A00000075
:102F100022617069746167223A22737472696E6704
:102F20005F706C61792200002264617461223A0052
:102F300086AD00085B256C645D5B2538735D5B25A1
:102F400038735D5B252D33645D5B494E464F5D3ABA
:102F500020BDD3CAD5B5BD6461746120CAFDBEDD94
:102F6000203A25730D0A0000220000005B256C64E6
:102F70005D5B2538735D5B2538735D5B252D3364A0
:102F80005D5B494E464F5D3A20BDE2CEF6B2A5B735
:102F9000C56461746120CAFDBEDD203A25730D0A47
:102FA00000000000AC010020A80D00206C130020E0
:102FB000780100206C14002025642D25642D2564E3
:102FC0002025643A25643A25640000000A000020A8
:102FD0006E756D6265725F75700000007C01002087
:102FE00098AD00085B256C645D5B2538735D5B25DF
:102FF00038735D5B252D33645D5B494E464F5D3A0A
:1030000020B6CFCFDFD6D8C1AC0D0A0030B503460D
:103010000C46002106E0585C655CA84201D0002007
:1030200030BD491C9142F6DB0120F9E770B5054639
:103030000E46002404E0295DE2A007F08FF9641C2D
:10304000B442F8DBE0A007F089F970BD70B5044622
:103050000D46DEA007F082F929462046FFF7E6FF7D
:1030600008222146DD48FFF7D1FF70BD30B502468A
:103070000B460020022113E0041244EA0024A0B20F
:10308000545C6040C0F3031460404FF6FF7505EADE
:10309000003460400406240D80EA44004C1CE1B278
:1030A0009C1CA142E8DB30BDFEB500250024FE22B9
:1030B0002146641C01A842542146641C425400224B
:1030C0002146641C425401222146641C4254C448D7
:1030D00002782146641C01A842540321FFF7C6FF71
:1030E00005462A122146641C01A842542146641C4C
:1030F0004554BB222146601CC4B201A842540022A0
:10310000082102F062FF00BF5C21B6A007F006FBB9
:1031100028B15C21B3A007F001FB401C00E0B1A086
:10312000064607F090F807468C20B54B32463946E4
:103130000090B44807F012F900BF00BF5C21A9A0BD
:1031400007F0ECFA28B15C21A6A007F0E7FA401CD2
:1031500000E0A4A0064607F076F807468D20A84BAD
:10316000324639460090A8A007F0F8F800BF0821C1
:1031700001A8FFF75BFFFEBD2DE9FF4100240025FC
:103180000022082102A803F06FFAC5B2002D1FDD4E
:10319000082102A8FFF75AFF002835D000BF5C21A4
:1031A00090A007F0BBFA28B15C218EA007F0B6FA18
:1031B000401C00E08BA0064607F045F80746A82013
:1031C0009E4B3246394600909DA007F0C7F81BE0A1
:1031D000002D19DC00BF5C2182A007F09FFA28B106
:1031E0005C2180A007F09AFA401C00E07DA0064612
:1031F00007F029F80746AD20904B3246394600903B
:103200009DA007F0ABF800BF9DF80800FE2857D13D
:103210009DF80900FE2853D100BF5C2171A007F082
:103220007DFA28B15C216FA007F078FA401C00E01D
:103230006CA0064607F007F80746B3207F4B3246DE
:10324000394600907EA007F089F800BF032102A84C
:10325000FFF70CFF04469DF80F00BB2830D19DF806
:103260000E00E1B288422BD19DF80D00B0EB242F67
:1032700026D19DF80A0020B99DF80C008C490870F1
:1032800000E000BF00BF00BF5C2156A007F046FA77
:1032900028B15C2153A007F041FA401C00E051A086
:1032A000064606F0D0FF074681480078BE21634BF2
:1032B0003246CDE9001039467E4807F04FF800BF8E
:1032C000002002900390BDE8FF8138B500BF5C216B
:1032D00044A007F023FA28B15C2142A007F01EFAAF
:1032E000401C00E03FA0044606F0ADFF0546D52097
:1032F000714B22462946009070A007F02FF800BFBE
:10330000FFF7D2FE794806F0B8FFFFF735FF38BD6A
:10331000F8B50025002404E0AA2030490855601CB7
:10332000C4B2082CF8DB002208212C4802F04DFE24
:103330006F4806F0A2FF002208216E4803F094F9BE
:1033400005B2002D20DD08216A48FFF77FFE002826
:1033500037D000BF5C2123A007F0E0F928B15C2141
:1033600020A007F0DBF9401C00E01EA0064606F096
:103370006AFF074640F203105F4B32463946009021
:103380002FA006F0EBFF1CE0002D1ADC00BF5C2133
:1033900014A007F0C3F928B15C2112A007F0BEF910
:1033A000401C00E00FA0064606F04DFF07464FF414
:1033B0008470514B3246394600902FA006F0CEFF64
:1033C00000BFF8BD257820000D0A000049534D20AC
:1033D00047657420646174613A2000007D0100201B
:1033E0000A0000202E2E5C6170705C706F746F6339
:1033F0006F6C5C706F746F636F6C2E630000000005
:10340000A3AD000840B400085B256C645D5B253803
:10341000735D5B2538735D5B252D33645D5B494EC1
:10342000464F5D3A205349343333323A2053656E68
:103430006420446174610D0A00000000AFAD000813
:103440005B256C645D5B2538735D5B2538735D5B64
:10345000252D33645D5B494E464F5D3A2053493418
:103460003333323A2052656365697665205375635C
:10347000636573730D0A00005B256C645D5B253822
:10348000735D5B2538735D5B252D33645D5B494E51
:10349000464F5D3A205349343333323A2052656304
:1034A00065697665204572726F72200D0A00000012
:1034B0000B00002088B40008BBAD00085B256C64DD
:1034C0005D5B2538735D5B2538735D5B252D33644B
:1034D0005D5B494E464F5D3A2070726F746F636F4B
:1034E0006C5F7461736B0D0A0000000020A107007F
:1034F000A086010085010020C9AD0008F8B5074687
:103500000E46154600200090002404F086F9342071
:1035100004F01EFC15E0201D854203D93019006817
:10352000009004E02A1B3119684607F021F9381988
:10353000009904F087FA042801D1241D01E000BF9E
:10354000FEE7AC42E7D304F074F92846F8BD70B545
:1035500004460D46164632462146284607F008F92D
:10356000304670BD2DE9F04106460C460025002787
:1035700004F053F9342004F0EBFBE70AC4F30A002B
:1035800000B17F1C00250AE04FF4006101FB0560DB
:1035900004F088F9042801D000BFFEE76D1CBD428D
:1035A00003D2044800780428EED004F042F9002049
:1035B000BDE8F0818D01002010B586B004460121E0
:1035C000082004F06BFF0121880404F074FF6F48A9
:1035D00006F000F94FF48060ADF8100003208DF87C
:1035E000120018208DF8130004A9694804F034FC77
:1035F0004FF40060ADF8100004208DF8130004A90A
:10360000634804F029FC00940020ADF80400ADF8F4
:103610000600ADF80800ADF80C000C20ADF80A006B
:1036200027208DF8140002208DF8150003208DF856
:10363000160001208DF8170005A803F076FF6946F3
:10364000524806F00AF9012240F225514F4806F08F
:103650009CF901214D4806F08CF906B010BD70B5FB
:1036600005460E46002400BF0CE000BF402147483D
:1036700006F05AFA0028F9D0295D444806F0E6F928
:10368000601CC4B2B442F0DB70BD2DE9FC410446BD
:103690000D460020019034E04FF47A7006F0EDFD05
:1036A0003C48008801282CD13B48C068002828D01D
:1036B000012201A9384806F0F5FA9DF80400A0425D
:1036C0001FD100203349088000BF5C2133A007F0E0
:1036D00025F828B15C2131A007F020F8401C00E05B
:1036E0002EA0064606F0AFFD07468B202F4B324634
:1036F000394600902EA006F031FE00BF0120BDE843
:10370000FC81681E80B2051EC6D12249088000BF18
:103710005C2122A007F002F828B15C211FA006F06E
:10372000FDFF401C00E01DA0064606F08CFD07468C
:1037300093201E4B32463946009027A006F00EFE1D
:1037400000BF4FF0FF30DAE708B540F225510F48CF
:1037500006F000FAC0B101200E4908800B4806F0BF
:1037600079F9C0B200909DF800002549254A1288D9
:10377000885424480088401C224908800122694658
:10378000054806F055FA00BF08BD0000004800409B
:10379000000C0140A8010020900100202E2E5C6248
:1037A00073705C7573617274332E6300D5AD00085D
:1037B0005B256C645D5B2538735D5B2538735D5BF1
:1037C000252D33645D5B494E464F5D3A20D3A6B448
:1037D000F0B3C9B9A60D0A005B256C645D5B2538A2
:1037E000735D5B2538735D5B252D33645D5B494EEE
:1037F000464F5D3A20D3A6B4F0CAA7B0DC0D0A004C
:103800003C0E0020A401002010B50121244805F041
:10381000CCFFB8B10121224805F0D8FF214800783B
:1038200080B121480078401C1F4908700846007884
:10383000032807DD00201B4908701B490870012080
:103840001A49087010BD7FB505460C46012120209D
:1038500004F031FEADF80450ADF800400020ADF8A2
:103860000600ADF8020069460D4805F079F901221D
:1038700011460B4805F0EBFC0121094805F0CCFC92
:1038800037208DF80C0000208DF80D0002208DF8F7
:103890000E0001208DF80F0003A803F046FE7FBD47
:1038A00000140040AD010020AE010020AC0100205A
:1038B00010B586B004465548008840F480705349DE
:1038C00008800846008840F0200008804FF4A0637C
:1038D00034220221032006F0B1FA0121C80404F0C9
:1038E000EAFD0121102004F0D9FD48480C3805F00C
:1038F00071FF4FF48060ADF8140003208DF81600BE
:1039000018208DF8170005A9414804F0A5FA4FF4D6
:103910000060ADF8140004208DF8170005A93C489C
:1039200004F09AFA01940020ADF80800ADF80A00FE
:10393000ADF80C00ADF810000C20ADF80E0001A998
:1039400032480C3805F089FF012240F225512F48FA
:103950000C3806F01AF801212C480C3806F009F84A
:1039600041F61F416320FFF76EFF0121294805F052
:1039700053FC06B010BD10B5044600BF23480C38F8
:10398000008800F040000028F8D021461F480C387D
:1039900006F05CF810BD10B5044603E02078FFF790
:1039A000EAFF641C20780028F8D110BD70B50446E9
:1039B0000D4603E02078FFF7DEFF641C281EA5F10A
:1039C0000101CDB2F6D170BD10B540F225510F48BE
:1039D0000C3806F0BFF8C0B101200F490870002074
:1039E0000E49087009480C3806F034F80C490D4AA5
:1039F000128888540B480088401C0A4908800846F1
:103A00000088FF2801DD0020088010BD0C4C00401C
:103A10000010014000140040AD010020AE01002064
:103A20006C130020AA0100200146CA1701EB927214
:103A30009210A1EB820292B9642091FBF0F200FB9C
:103A4000121050B94FF4C87091FBF0F200FB121045
:103A500008B9012070470020FCE70120FAE70020A8
:103A6000F8E72DE9F05F06460F4690469946DDE9F6
:103A70000AAB002501214FF0C05004F01CFD0120CD
:103A800004F043FB04F0CAFD40F2B270864203DB4F
:103A900040F63300864201DDBDE8F09F40F2B2748B
:103AA0000AE02046FFF7C0FF10B19448054401E04A
:103AB00093480544601C84B2B442F2DB781EC7B25E
:103AC000002410E08F48005D40F2A321484305EB3D
:103AD000C0153046FFF7A8FF18B1012C01D18A4864
:103AE0000544601C84B2BC42ECDBA8F1010040F24A
:103AF000A321484305EBC015C9EB4911C1EB0921CE
:103B000005EB0111CAEB0A1201EB820101EB0B007C
:103B100004F051FD04F082FD00BFBDE710B50121A6
:103B20004FF0C05004F0C7FC012004F0EEFA03F09F
:103B300065FD012004F01FFC00BF412004F083FB61
:103B40000028FAD04FF4807004F031FC012004F01A
:103B500034FC04F06CFD04F061FD0121084604F022
:103B600001FD04F05BFD47F6FF7004F031FD04F049
:103B700055FD10BD08B503208DF8000002208DF81A
:103B8000010000208DF8020001208DF80300684636
:103B900003F0CBFC08BD1CB50446FFF7EBFF042087
:103BA00003F061FD4AF2A551884211D0FFF7B6FF3C
:103BB0003B200090172301220821019040F2E2707F
:103BC000FFF74FFF4AF2A551042003F040FD0EE03D
:103BD0007B2004F038FB10B97A2004F034FB04F0A9
:103BE00026FD0121084604F0BDFC04F017FD04F099
:103BF00093FC464804601CBD70B5002600240025D7
:103C000004F0D0FC06464048B6FBF0F4404800887B
:103C1000A0423CD03E490C8040F2B27510E02846EC
:103C2000FFF702FF40B1B4F5B77F02D3A4F5B77434
:103C300004E0681C85B206E0A4F26D14681C85B22D
:103C4000B4F5B67FEBD800BF32488580002516E07A
:103C500030498888FFF7E8FE30B1012D04D11D2CD2
:103C600001D31D3C09E00CE02648405DA04203D88A
:103C70002448405D241A00E003E0681C85B21C2C37
:103C8000E6D200BF681C23498871601CC8711E48B9
:103C9000B6FBF0F100FB11644FF46160B4FBF0F08F
:103CA0001C4908704FF46160B4FBF0F100FB114057
:103CB0003C21B0FBF1F0174948704FF46160B4FB50
:103CC000F0F100FB11403C21B0FBF1F201FB1200CE
:103CD00010498870002070BD10B5012004F0CCFCA4
:103CE00050B1012004F0D8FC0848006820B10A480F
:103CF000006806490968884710BD00000085E20198
:103D00008033E101E3AD000880510100B0010020E3
:103D1000B40100206C140020B801002010B500246C
:103D20000121022004F0C7FB4FF4A0631D220221F1
:103D3000084606F083F8604800686049B0FBF1F07F
:103D4000401E84B24FF6FF705D49888000200880D5
:103D5000C88048805B4804F003FF0122214659488F
:103D600005F001FB00205849088001204880574891
:103D70000088C88000200881524804F02EFF0021EE
:103D80004FF0804005F078FB012212214D4805F0EC
:103D90005EFA01214B4805F03FFA10BD10B5022133
:103DA000484805F002FD70B30221464805F00EFDBB
:103DB00003F0C9F9FDF7F9F801280CD04448008850
:103DC000C82808DC43480078012804D1404800880E
:103DD000401C3F4908803E480088C82804DD002078
:103DE0003B4908803B490870364805F0BFFC3A491A
:103DF000088008460088354A1288104481B231484C
:103E000005F0A2FC57E0FFE704212E4805F0CDFCA9
:103E100090B104212B4805F0D9FC2A4805F0A9FCF3
:103E20002D490880084600882C4A1288104481B227
:103E3000244805F08BFC3EE00821224805F0B5FC43
:103E400090B108211F4805F0C1FC1E4805F094FC04
:103E50002149088008460088214A1288104481B20E
:103E6000184805F075FC26E01021164805F0AEFC58
:103E70001C480088012810D11B480078401C1A49B2
:103E8000087008460078032807DD002015490880DF
:103E900015490870154805F0C1FE0A4805F06FFC89
:103EA0000D49088008460088114A1288104481B2E2
:103EB000044805F04FFC10BD88080020808D5B0091
:103EC000761400200004004080140020C20100206D
:103ED000CA0100207D080020C0010020C40100208C
:103EE000C6010020A8010020CC0100209001002084
:103EF000C801002008B50121602004F0CFFA40F28B
:103F00008370ADF8000010208DF8030003208DF8B9
:103F100002006946F84803F09FFF8020ADF80000DA
:103F200010208DF8030003208DF802006946F34845
:103F300003F092FF4FF47F40ADF8000010208DF8A1
:103F4000030003208DF802006946EC4803F084FF6B
:103F500008BD08B50121602004F0A0FA4FF47F40AD
:103F6000ADF8000010208DF8030003208DF802004A
:103F70006946E24803F070FF08BD08B501216020E2
:103F800004F08CFA4FF47F40ADF8000048208DF823
:103F9000030003208DF802006946D84803F05CFF57
:103FA00008BD70B50446012C07D0022C05D021466F
:103FB000D3A006F0D3F9FF2070BD0221CE4803F054
:103FC000FAFFFFF7DAFF0121CB4803F0F4FF012CE1
:103FD00004D12102C84803F0ECFF04E04FF4007163
:103FE000C54803F0E6FF0221C34803F0E2FF0120C9
:103FF00006F043F98021C14803F0DBFF012006F001
:104000003CF98021BD4803F0D6FFBC4803F0C0FF57
:104010000546012006F031F90221B74803F0CBFF35
:10402000012C04D12102B44803F0C5FF04E04FF491
:104030000071B14803F0BFFF802000EA252008B1DD
:104040000120B9E70020B7E770B506460C46012C01
:1040500006D0022C04D02146A9A006F07FF970BD3D
:104060000221A54803F0A5FFFFF773FF0121A24835
:1040700003F0A1FF012C04D121029F4803F099FF16
:1040800004E04FF400719C4803F093FF02219A482A
:1040900003F091FF994803F07BFF0546EDB245EA36
:1040A00006252946954803F08DFF8021934803F0AB
:1040B00080FF012006F0E1F88021904803F07BFFAB
:1040C000012006F0DAF802218B4803F072FF012C80
:1040D00004D12102884803F06EFF05E0022C03D1D1
:1040E0002102854803F067FF00BFB8E770B50646B8
:1040F0000C46012C06D0022C04D0214680A006F0EC
:104100002DF970BD02217C4803F053FFFFF721FF1A
:104110000121794803F04DFF012C04D1210276489A
:1041200003F047FF04E04FF40071734803F041FFD0
:104130000221714803F03FFF704803F029FF054654
:10414000EDB245EA062529466C4803F03BFF802185
:104150006A4803F02EFF012006F08FF8802167489F
:1041600003F029FF012006F088F80221624803F0DD
:1041700020FF012C04D121025F4803F01CFF04E062
:104180004FF400715C4803F016FF00BFB9E770B54B
:1041900006460C46402C01DB022500E0012529469D
:1041A000C020FFF751FF04F03F0101F14000294614
:1041B000FFF74AFF06F00701B831C8B22946FFF7FA
:1041C00043FF70BD70B5002500BF1DE000212846EB
:1041D000FFF7DDFF002405E001210020FFF786FF47
:1041E000601CC4B2402CF7DB40212846FFF7CFFF0C
:1041F000002405E002210020FFF778FF601CC4B214
:10420000402CF7DB681CC5B2082DDFDB70BD70B534
:1042100005466906080E0021FFF7B9FF002405E0F6
:1042200001210020FFF762FF601CC4B2402CF7DBC5
:10423000012101EB4501C8B20021FFF7A8FF0024CE
:1042400005E001210020FFF751FF601CC4B2402CA3
:10425000F7DB6906080E4021FFF799FF002405E00F
:1042600002210020FFF742FF601CC4B2402CF7DBA4
:10427000012101EB4501C8B24021FFF788FF00246E
:1042800005E002210020FFF731FF601CC4B2402C82
:10429000F7DB70BD10B5FFF72DFE8021164803F047
:1042A0008AFE4FF48061144803F085FE1B4805F038
:1042B000E4FF4FF48061104803F07BFE174805F0DF
:1042C000DCFF80210D4803F076FE012005F0D5FFCC
:1042D0000121C020FFF7B8FE01213F20FFF7B4FE07
:1042E0000221C020FFF7B0FE02213F20FFF7ACFE05
:1042F000FFF768FF10BD00000014014000180140E6
:10430000636F6E74726F6C6C65725F637328256483
:10431000296572726F722E2E2E0D0A00A086010082
:1043200070B505460026002400BF1DE00021304680
:10433000FFF72DFF002413E0402C03D12146304627
:10434000FFF725FF402C04DA28780121FFF7CEFE85
:1043500003E028780221FFF7C9FE6D1C601CC4B27F
:10436000802CE9DB701CC6B2082EDFDB70BD10B5F7
:104370008B48FFF7D5FF8B4805F07FFF10BD2DE977
:10438000F04F85B007460C4690469946032F04DC53
:104390000F2C02DCB8F1000F04D14FF0FF3005B054
:1043A000BDE8F08F09EB0400102803DDC4F1100014
:1043B00000F0FF09002554E026464FF0000A4AE0CD
:1043C000082E02DB0220049001E001200490C020AE
:1043D0000499FFF739FE05EB4700C0B240F0B80082
:1043E0000390DDE90301FFF72FFE3F2000EAC6003E
:1043F00040F04000029004990298FFF725FE18F85B
:104400000A0000F0800018B167A005F0A7FF1CE0CB
:104410004FF0000B16E018F80A002038C1B20191E5
:10442000082000FB05B0C1B20091674A019902EB78
:1044300001120099505C0499FFF758FE0BF101003E
:1044400000F0FF0BBBF1080FE5DB701CC6B20AF1F0
:10445000010000F0FF0A04EB0900B042B0DC681C68
:10446000C5B2022DA8DB002099E710B5802157487E
:1044700003F09FFDFFF7A6FE10BD10B58021534845
:1044800003F099FD10BD11B583B003AC002000907E
:1044900007234FA200210846FFF771FF9DF80C008B
:1044A0000A2190FBF1F201FB1200C0B2029002ACB3
:1044B000207830302070012322460020FFF75FFF74
:1044C0009DF80C000A2814DB9DF80C000A2190FBD3
:1044D000F1F090FBF1F201FB1200C0B2019001ACCF
:1044E0002078303020700123224609210020FFF778
:1044F00046FF9DF80C00642815DB9DF80C00642134
:1045000090FBF1F00A2190FBF1F201FB1200C0B226
:1045100000906C462078303020700123224608211C
:104520000020FFF72CFF1FBD1FB500200090019059
:1045300002900390072328A200210846FFF71FFFDF
:104540000E2328A200210120FFF719FF0822294984
:10455000684605F097FD10236A4600210220FFF708
:104560000EFF1FBD10B524480478022022490870B0
:1045700014B1012C10D108E0FFF724FE1F48007889
:10458000FFF781FFFFF7D0FF07E0FFF71BFE1B4897
:104590000078FFF778FF00E000BF00BF10BD00000B
:1045A000EFAD000840420F006E6F7420737570709D
:1045B0006F727420646973706C6179206368696ECE
:1045C0006573650D0A000000CD0100200014014054
:1045D0004E756D6265723A0049445F636172643A78
:1045E00000000000546869732069732061207465BD
:1045F00073742E0031000020300000200A000020DB
:1046000008B50121402003F049FF1020ADF800005B
:104610008DF8030003208DF802006946FE4803F080
:104620001BFC2020ADF8000048208DF803006946EF
:10463000F94803F011FC08BD10B504462CB1012265
:104640001021F54803F0B9FC04E000221021F248E3
:1046500003F0B3FC10BD10B52021EF4803F08FFC30
:1046600010BD012000BF011EA0F10100FBD1704769
:1046700010B50120FFF7E0FF10BD10B50020FFF7D7
:10468000DBFF10BD10B5FFF7BBFFFFF7F1FF10BD5B
:104690002DE9F041064600251FE00020DF490870A3
:1046A0004FF4E15400E0641EFFF7D5FF08B9002C79
:1046B000F9D114B90120BDE8F08105F0AEFD06E0A6
:1046C00005F0B0FDD649884201D8322503E0FFF756
:1046D000C2FF0128F4D000BF6D1C322DDDD34FF492
:1046E000E15400E0641EFFF7B6FF012801D1002C61
:1046F000F8D10CB90120DEE7CA4C00E0641EFFF7D8
:10470000AAFF08B9002CF9D10CB90120D3E705F0B4
:1047100084FDDFF81483002548E000273DE000BF5A
:1047200005F080FD4045FBDCFFF795FF01281BD11C
:104730004FF4E15400E0641EFFF78DFF012801D122
:10474000002CF8D10CB90120B5E7B448007840102E
:10475000B24908700846007840F080000870DFF821
:10476000CC8205F05AFD17E04FF4E15400E0641EDE
:10477000FFF771FF08B9002CF9D10CB901209AE7B5
:10478000A64800784010A5490870084600780870CF
:10479000DFF8988205F041FD7F1C082FBFD39F48AA
:1047A0000078705500209D4908706D1C082DB4D309
:1047B000002080E710B59E48007801280BD105F055
:1047C0002CFD00BF05F02EFD9A498842FAD8002042
:1047D000FFF732FF0AE005F020FD00BF05F022FDE3
:1047E00095498842FAD80020FFF726FF05F015FD0D
:1047F00000BF05F017FD91498842FAD80120FFF764
:104800001BFF10BD10B5044605F007FD00BF05F005
:1048100009FD8B498842FAD80020FFF70DFF05F00B
:10482000FCFC00BF05F0FEFC82498842FAD801205A
:10483000FFF702FF7E480470007800F010007C490A
:10484000087008460078102804D101200870FFF78E
:10485000B1FF04E0002076490870FFF7ABFF744811
:104860000470007800F0010071490870FFF7A2FFA2
:1048700010BD10B504466E480470007800F00100C9
:104880006B490870FFF796FF10BD70B5002413E068
:104890006C48055D00260BE065480570007800F067
:1048A000010063490870FFF785FF6D10701CC6B2E8
:1048B000082EF1DB601CC4B2042CE9DB70BD10B51E
:1048C00004465B480470007800F004005849087002
:1048D00008460078042804D101200870FFF76AFF19
:1048E00004E0002052490870FFF764FF504804704C
:1048F000007800F002004E4908700846007802284F
:1049000004D101200870FFF755FF04E0002048495A
:104910000870FFF74FFF46480470007800F0010070
:1049200043490870FFF746FF10BD3EB5044611200D
:10493000FFF768FF012005F079FC2046FFF7A8FE8D
:1049400008B101203EBD052005F070FC1120FFF7E5
:1049500059FF012005F06AFC6846FFF799FE08B18F
:104960000120EFE708222146684605F0ABFE08B1BA
:104970000120E7E70020E5E770B58CB000200A9041
:104980000B900AA8FFF7D1FF0446002C42D100BFCC
:104990005C212DA005F0C2FE28B15C212AA005F003
:1049A000BDFE401C00E028A0054605F04CFC064674
:1049B0004FF495702B4B2A46314600902AA005F003
:1049C000CDFC00BF00BF5C211FA005F0A7FE28B1F1
:1049D0005C211DA005F0A2FE401C00E01AA00546C7
:1049E00005F031FC06469DF82F009DF82E109DF82D
:1049F0002D209DF82C30CDE90532CDE907109DF82A
:104A00002B009DF82A109DF829209DF82830CDE92B
:104A1000013241E04CE0000000180140BD070020D9
:104A200000320A0040190100B0450A00109A0A003D
:104A3000BE07002080900A0080D80A0030B60A0025
:104A4000407E0500BF0700202E2E5C6472697665EB
:104A500072735C6C663132356B5C6C663132356B0F
:104A60002E630000EFB100085B256C645D5B2538A8
:104A7000735D5B2538735D5B252D33645D5B494E4B
:104A8000464F5D3A20B5CDC6B5BFA8BBF1C8A1B3AE
:104A9000C9B9A6A3A10D0A00CDE9031040F22B105D
:104AA000DD4B2A4631460090DCA005F057FC1DE0A6
:104AB00000BF5C21AFF2700005F030FE30B15C2128
:104AC000AFF27C0005F02AFE401C01E0AFF2880046
:104AD000054605F0B8FB06464FF49870CE4B2A46C3
:104AE00031460090DDA005F039FC00BF0CB070BD70
:104AF0003EB504460D4604F007041020FFF782FE81
:104B00000020FFF7B6FE2046FFF7D9FE022005F091
:104B10008DFB6846FFF7BCFD022005F087FB1020E7
:104B2000FFF770FE0020FFF7A4FE2046FFF7C7FE48
:104B3000022005F07BFB2846FFF7AAFD0422294648
:104B4000684605F0BFFD08B101203EBD0020FCE72E
:104B5000FEB505460C46002605F08000802800D1F1
:104B6000012605F007050DB90120FEBD1020FFF755
:104B700049FE3046FFF77DFE2078C4490870607812
:104B80004870A0788870E078C870FFF77EFE2846ED
:104B9000FFF795FE022005F049FB1020FFF732FEDB
:104BA0000020FFF766FE2846FFF789FE022005F089
:104BB0003DFB6846FFF76CFD04222146684605F080
:104BC00081FD08B10120D0E70020CEE70246012098
:104BD00070472DE9F04106460C461546002706F0C1
:104BE0008000802800D101271020FFF70BFE2878D5
:104BF000A649087068784870A8788870E878C87006
:104C0000FFF743FE3846FFF734FE20789F490870CF
:104C100060784870A0788870E078C870FFF735FE3B
:104C20003046FFF74CFE012005F000FB2046FFF761
:104C30002FFD10B10120BDE8F0810020FBE770B529
:104C400006460D4614461020FFF7DCFD20788F49FC
:104C5000087060784870A0788870E078C870FFF7B6
:104C600014FE0020FFF705FE3046FFF728FE012066
:104C700005F0DCFA2846FFF70BFD08B1012070BDF6
:104C80000020FCE70EB51020FFF7BCFD0020FFF769
:104C9000F0FD00207D4908702820487001208870B0
:104CA0001720C870FFF7F1FD0020FFF708FE642011
:104CB00005F0BCFA6846FFF7EBFC6846FFF735FEE7
:104CC0000EBD10B51020FFF79DFD0020FFF7D1FDB0
:104CD00000206E4908702820487001208870172035
:104CE000C870FFF7D2FD0020FFF7E9FD10BD0EB53B
:104CF0001020FFF787FD0020FFF7BBFD0020634970
:104D0000087028204870012088701720C870FFF7AD
:104D1000BCFD0020FFF7D3FD642005F087FA68464C
:104D2000FFF7B6FC6846FFF700FE0EBD10B5102079
:104D3000FFF768FD0020FFF79CFD00205349087035
:104D400028204870412088701F20C870FFF79DFD03
:104D50000020FFF7B4FD10BD10B504462146072022
:104D6000FFF7F6FE08B1012010BD1020FFF74AFD45
:104D70000020FFF77EFD002044490870282048707D
:104D8000412088701F20C870FFF77FFD0020FFF7CB
:104D900096FD0020E8E73EB504461020FFF732FDFF
:104DA00020783A49087060784870A0788870E07878
:104DB000C870FFF76AFD0020FFF75BFD0020334954
:104DC000087028204870012088701720C870FFF7ED
:104DD0005CFD0020FFF773FD012005F027FA68460F
:104DE000FFF756FC08B101203EBD0020FCE73EB5B0
:104DF00004466846FFF799FD58B19DF804002070FD
:104E00009DF8050060709DF80600A0709DF80700F1
:104E1000E07000203EBD0000EFB100085B256C642F
:104E20005D5B2538735D5B2538735D5B252D3364D1
:104E30005D5B494E464F5D3A206964206361726450
:104E40003A25582025582025582025582025582017
:104E500025582025582025580D0A00005B256C6434
:104E60005D5B2538735D5B2538735D5B252D336491
:104E70005D5B494E464F5D3A20B5CDC6B5BFA8BB78
:104E8000F1C8A1CAA7B0DCA3A10D0A00BF0700208A
:104E900010B54FF4E130FEF78FFB002010BD7CB55C
:104EA00005460024FD222146641C0DF80120002245
:104EB0002146641C0DF8012001222146641C0DF8D6
:104EC00001202146641C0DF8015021466846FEF77A
:104ED000C6FB4FF496714120FEF7D7FB7CBD7FB532
:104EE00000244FF49675002002900390FD22214685
:104EF000641C0DF8012000222146641C0DF80120DD
:104F000001222146641C0DF8012021222146641C47
:104F10000DF8012021466846FEF7A1FB12E04FF490
:104F20007A7005F0AAF92021F04804F0FDFD48B19F
:104F3000EE4804F08FFDC0B28DF808009DF808001F
:104F400004B070BD681E051EE9D1401EF8E710B51B
:104F50008820FFF7A4FF10BD10B5FF20FFF79FFFCB
:104F600010BD2DE9F0470746884692460025A94620
:104F700017B9681EBDE8F087B8F1030F02DD4FF0E6
:104F8000FF30F7E7384605F0D4FB064601213046EE
:104F900005F0A9F9044614B94FF0FF30EAE7FD2205
:104FA00028466D1C2254C6F3072228466D1C225445
:104FB000B01CC2B228466D1C2254012228466D1C2A
:104FC000225428466D1C04F8008032463946601D84
:104FD00005F0CEFB3544E9B22046FEF740FB4FF426
:104FE00096714120FEF751FB814614B1204605F031
:104FF0008EF94846BEE710B50220FFF750FF10BDFE
:1050000010B50320FFF74BFF10BD10B50420FFF7CC
:1050100046FF10BD2DE9F04780460F4600240025CD
:10502000A146B8F1000F02D1601EBDE8F087102F35
:1050300002DB4FF0FF30F8E7404605F07AFB86B21E
:10504000C7F11000B6EB002F02DD4FF0FF30ECE7A8
:105050000121304605F047F9044614B94FF0FF30FE
:10506000E3E7FD222846691C8DB22254320A284605
:10507000691C8DB22254B01CC2B22846691C8DB284
:10508000225431222846691C8DB222542846691CBC
:105090008DB2275460193246414605F069FBA819C4
:1050A00085B2E9B22046FEF7DAFA4FF49671412054
:1050B000FEF7EBFA00F0FF0914B1204605F027F9DE
:1050C0004846B2E77CB505460E460024032E01DCB7
:1050D0000F2D02DD4FF0FF307CBDFD222046611C0C
:1050E0008CB20DF8002000222046611C8CB20DF815
:1050F000002002222046611C8CB20DF800203222D2
:105100002046611C8CB20DF80020F02000EA05104A
:1051100006F00F0108432146621C94B20DF801000D
:10512000E1B26846FEF79BFA4FF496714120FEF714
:10513000ACFAD1E770B505460E46002404E0295DBF
:105140006BA005F00BF9641CB442F8DB69A005F014
:1051500005F970BD2DE9FE4305460C4601261DB933
:1051600000263046BDE8FE8300BF5C2162A005F04A
:10517000D5FA28B15C2160A005F0D0FA401C00E00F
:105180005DA0074605F05FF880464FF4C870634B9A
:105190003A464146009062A005F0E0F800BF1020BA
:1051A000FFF77DFE01281CD0002600BF5C2152A025
:1051B00005F0B4FA28B15C214FA005F0AFFA401C0D
:1051C00000E04DA0074605F03EF880464FF4CA7057
:1051D000524B3A46414600905EA005F0BFF800BF32
:1051E0007FE100BF5C2144A005F098FA28B15C2162
:1051F00041A005F093FA401C00E03FA0074605F0EF
:1052000022F8804640F29710444B3A4641460090BF
:1052100060A005F0A3F800BF0CE0012005F006F83F
:10522000012201A96B4804F03DFD9DF80400FC2813
:1052300000D102E0601E041EEFD100BF00BF5C2160
:105240002DA005F06BFA28B15C212BA005F066FAC1
:10525000401C00E028A0074604F0F5FF804640F21D
:10526000A7102E4B3A46414600905BA005F076F819
:1052700000BF04220DF10501564804F013FD0A2178
:1052800001A8FFF757FF002C2CD09DF80400FC2844
:1052900028D19DF80700012806D0022809D003284C
:1052A00021D0042820D1D8E001269DF808002870DC
:1052B00013E1022600BF5C210FA005F02FFA28B1F0
:1052C0005C210DA005F02AFA401C00E00AA0074668
:1052D00004F0B9FF804640F2B510104B3A46414603
:1052E000009095E0FAE098E0D7E000000048004028
:1052F000257820000D0A00002E2E5C647269766508
:1053000072735C7866733531353263655C786673C9
:105310003531353263652E6300000000FBB10008B3
:105320005B256C645D5B2538735D5B2538735D5B65
:10533000252D33645D5B494E464F5D3A20726563AF
:105340006F676E697A652073746172742E2E2E0DEC
:105350000A0000005B256C645D5B2538735D5B258E
:1053600038735D5B252D33645D5B4552524F5D3A6A
:10537000204572726F723A205846535F434D445F26
:105380005245434F474E495A455F53544152540D7D
:105390000A0000005B256C645D5B2538735D5B254E
:1053A00038735D5B252D33645D5B4552524F5D3A2A
:1053B00020537563636565643A205846535F434DD7
:1053C000445F5245434F474E495A455F53544152FB
:1053D000540D0A00900100205B256C645D5B25384C
:1053E000735D5B2538735D5B252D33645D5B4552D2
:1053F000524F5D3A20537563636565643A206B666E
:1054000069666F5F70756C6C5F6F75740D0A000074
:10541000BAA004F0A3FF00BF5FE0032600BF5C2139
:10542000AFF22C1005F07AF930B15C21AFF23810F0
:1054300005F074F9401C01E0AFF24410074604F097
:1054400002FF804640F2B910B94B3A4641460090FF
:10545000B8A004F083FF00BF3FE0042600BF5C213A
:10546000AFF26C1005F05AF930B15C21AFF2781050
:1054700005F054F9401C01E0AFF28410074604F037
:10548000E2FE804640F2BD10A94B3A4641460090EC
:10549000B4A004F063FF00BF1FE0002600BF5C2142
:1054A000AFF2AC1005F03AF930B15C21AFF2B810B0
:1054B00005F034F9401C01E0AFF2C410074604F0D7
:1054C000C2FE804640F2C110994B3A4641460090D8
:1054D000B2A004F043FF00BF00BF00BF04B9002624
:1054E00000BF1F20FFF7DBFC01281ED0002600BFF5
:1054F0005C21AFF2FC1005F011F930B15C21AFF284
:10550000082005F00BF9401C01E0AFF2142007461B
:1055100004F099FE804640F2D310854B3A4641464E
:105520000090ABA004F01AFF00BF00BF5C21AFF2F7
:10553000382005F0F3F830B15C21AFF2442005F0DB
:10554000EDF8401C01E0AFF25020074604F07BFE6E
:1055500080464FF4EB70764B3A4641460090ACA043
:1055600004F0FCFE00BF3046FCE530B591B03421BC
:1055700004A805F06CF9FBF7BAFBB5480078401EAB
:10558000B44901EBC000C079B1490978491EB14A5C
:1055900002EBC1018979CDE90010AD480078401EC9
:1055A000114601EBC0004379A9480278AAA104A8DA
:1055B00004F0E0FE00BF5C21AFF2C42005F0AEF8BD
:1055C00030B15C21AFF2D02005F0A8F8401C01E01A
:1055D000AFF2DC20044604F036FE05469C48007815
:1055E000401E9C4901EBC000C07999490978491EC9
:1055F000984A02EBC1018979954A1278521E954B5F
:1056000003EBC202527940F2E913CDE90032CDE951
:1056100002109C4B224629469BA004F09FFE00BF2F
:105620000122114604A8FFF79CFC0120A149087043
:1056300011B030BD10B5012211469FA0FFF791FCBB
:1056400010BD10B5012211469EA0FFF78AFC012271
:105650001146A2A0FFF785FC01221146A2A0FFF788
:1056600080FC01221146A3A0FFF77BFC10BD7CB596
:105670001E2001904FF47A7101A8FFF76BFD0128FD
:1056800023D100BF5C21AFF2903005F047F830B174
:105690005C21AFF29C3005F041F8401C01E0AFF214
:1056A000A830044604F0CFFD054640F20720944B95
:1056B00022462946009093A004F050FE00BF01222C
:1056C00011469DA0FFF74DFC7CBD9F499DF804202D
:1056D00051F8220001221146FFF743FC9DF8040017
:1056E000182802D1FEF7C9FE05E09DF804001A282B
:1056F00001D1FEF7BAFE00BFE6E700005B256C644F
:105700005D5B2538735D5B2538735D5B252D3364E8
:105710005D5B4552524F5D3A204572726F723A207E
:1057200054696D65206F75740D0A0D0A0000000044
:10573000FBB100085B256C645D5B2538735D5B2500
:1057400038735D5B252D33645D5B4552524F5D3A86
:10575000204572726F723A205265667573650D0A44
:105760000D0A00005B256C645D5B2538735D5B256D
:1057700038735D5B252D33645D5B4552524F5D3A56
:10578000204572726F723A20496E7465726E616C58
:10579000206572726F720D0A0D0A00005B256C6441
:1057A0005D5B2538735D5B2538735D5B252D336448
:1057B0005D5B4552524F5D3A204572726F723A20DE
:1057C000556E6B6E6F7720636D640D0A0D0A0000D5
:1057D0005B256C645D5B2538735D5B2538735D5BB1
:1057E000252D33645D5B4552524F5D3A2045727200
:1057F0006F723A205846535F434D445F5245434FC2
:10580000474E495A455F53544F500D0A000000005F
:105810005B256C645D5B2538735D5B2538735D5B70
:10582000252D33645D5B4552524F5D3A20537563BD
:10583000636565643A205846535F434D445F524563
:10584000434F474E495A455F53544F500D0A00008D
:1058500009000020E0080020C7EB2564BAC5B5BDEB
:10586000B4B0BFDAA3AC4944BFA8CEB2BAC5BAF34C
:10587000C8FDCEBBCEAA2578202C2578202C2578F3
:105880002000000009B200085B256C645D5B2538D0
:10589000735D5B2538735D5B252D33645D5B494E1D
:1058A000464F5D3A205B2025782025782025785DBD
:1058B0000D0A000030000020CBA2BFA8B3C9B9A6D2
:1058C00000000000D5FDD4DAB4E6B4A2A3ACC7EB67
:1058D000CEF0D2C6BFAAB4C5BFA80000B4E6B4A239
:1058E000CDEAB3C9A3A10000B4C5BFA8D2D1B4E624
:1058F000D4DA0000BFD5BCE4D2D1C2FA0000000067
:105900001BB200085B256C645D5B2538735D5B250D
:1059100038735D5B252D33645D5B494E464F5D3AC0
:10592000207265636F676E6974696F6E2066616966
:105930006C6564210D0A0000D3EFD2F4CAB6B1F051
:10594000CAA7B0DC00000000C807002008B54FF46B
:105950008070ADF8000010208DF8030003208DF852
:10596000020069467A4802F077FA08BD10B50121B5
:10597000C80202F093FD0121052002F08FFD10BD49
:105980001FB519208DF8000003208DF801000220BA
:105990008DF8020001208DF80300684601F0C5FD76
:1059A000FFF7E4FFFFF7D2FF6A4800686A49B0FBDF
:1059B000F1F0401E6949088044F62060ADF8080007
:1059C00008460088ADF804000020ADF80A00ADF8E4
:1059D000060001A9624803F0C3F80121604803F002
:1059E0001BFD01215E4803F017FC1FBD10B50446E6
:1059F00021465B4803F0A8FE10BD08B536208DF89F
:105A0000000003208DF8010002208DF80200012023
:105A10008DF80300684601F088FD08BD0EB5012130
:105A2000102002F048FD4F4802F0C6FF49480068C8
:105A30004949B0FBF1F0401E80B2ADF800000020F3
:105A4000ADF80600ADF80200FA20ADF80400694692
:105A5000444803F085F80121424803F0A3FE0121E8
:105A6000404803F0D9FC002201213E4803F0EFFB3F
:105A70000EBD10B5FFF7C1FFFFF7D0FF0121394878
:105A800003F0CAFB002010BD10B50121354803F01A
:105A90008CFE20B30121334803F098FE3248007891
:105AA00068B13248007800F001024FF48071284854
:105AB00002F083FA2D480088401C2C4908802B48AE
:105AC0000088B0F57A7F0ADB002028490880264943
:105AD000087000224FF480711D4802F06EFA10BD6C
