:020000040800F2
:10000000081B0020356F0008256D0008276D0008CB
:10001000316D0008356D0008396D000800000000E2
:100020000000000000000000000000003D6D00081E
:100030003F6D0008000000004B6F0008A19C000805
:100040004F6F00084F6F00084F6F0008493A0008D3
:100050004F6F00084F6F00084F6F00084F6F000888
:100060004F6F00084F6F00084F6F00084F6F000878
:100070004F6F00084F6F00084F6F00084F6F000868
:100080004F6F00084F6F00084F6F00084F6F000858
:100090004F6F00084F6F00084F6F00084F6F000848
:1000A0004F6F00084F6F00084F6F00084F6F000838
:1000B000E11200080D3B00084F6F00084F6F000869
:1000C0004F6F00084F6F00084F6F00084F6F000818
:1000D0004F6F0008C51E00084F6F0008B9340008B4
:1000E000856900084F6F00084F6F00084F6F0008C8
:1000F0004F6F00084F6F00084F6F00084F6F0008E8
:100100004F6F00084F6F00084F6F00084F6F0008D7
:10011000393700084F6F0008DD54000879350008B2
:100120004F6F00084F6F00084F6F00084F6F0008B7
:1001300000F002F800F06FF80AA090E8000C82448A
:100140008344AAF10107DA4501D100F064F8AFF267
:10015000090EBAE80F0013F0010F18BFFB1A43F0A5
:100160000103184730AF000050AF00000A444FF0C1
:10017000000C10F8013B13F0070408BF10F8014B06
:100180001D1108BF10F8015B641E05D010F8016B4B
:10019000641E01F8016BF9D113F0080F1EBF10F8AF
:1001A000014BAD1C0C1B09D16D1E58BF01F801CBD2
:1001B000FAD505E014F8016B01F8016B6D1EF9D555
:1001C0009142D6D37047000000230024002500266A
:1001D000103A28BF78C1FBD8520728BF30C148BFAA
:1001E0000B607047642909F05386752909F0508621
:1001F000782909F0898663290AF0738173290AF046
:100200007881002070471FB59DE803000AF08AF846
:100210001FBD10B510BD0AF0E5F91146FFF7F3FF59
:1002200000F00AF80AF003FA03B4FFF7F2FF03BC88
:1002300001F0EAFD30BF000000F032F80122114663
:100240000CA004F018FD03F04AFF00F087F800F05E
:10025000DCF803F01BFC012000F0ECF801F097FE45
:1002600007E002F066FD00F0B7FE04F016F806F0B5
:1002700082FBF6E7BBB6D3ADCAB9D3C3D6C7C4DCDD
:10028000C5C5B6D3BBFA000010B54FF4A06006F0A8
:1002900071FE10BD0121184A1160184908607047AD
:1002A00010B5FFF7F1FF09F0CAFC4FF4E13001F09F
:1002B000BDFD134841684820884709F0FBFC03F066
:1002C000A1FE002003F01FFB04F06CFC4FF4E130B2
:1002D00003F0A6F904F060F805F02CF905F0B5FA82
:1002E00005F09DFD0749012005F09BFF05F0A6FFE5
:1002F00006F0A0FB002010BD04000020000000203C
:100300007C0000207B3000087CB50546002668464E
:1003100004F095F906463EB9002000900190684629
:1003200004F08DF9064601E002207CBDA6B9002448
:100330000EE0FE4800EBC4010822684609F0E6FE24
:1003400028B900982860019868600020EDE7641CD7
:10035000052CEEDB0120E8E70220E6E72DE9FE436D
:100360000126324602A9F24802F0A9FF00BF5C2133
:10037000F0A009F0F7FE28B15C21EEA009F0F2FE32
:10038000401C00E0EBA0074609F087FC80469DF882
:1003900008006521ED4B3A46CDE900104146ECA03E
:1003A00009F006FD00BF9DF80800A3282BD0A3206C
:1003B000029001252946DE4802F08CFF2A4602A958
:1003C000DB4802F053FF002407E0D84901EBC400EA
:1003D000EE22082109F035FF641C052CF5DB012510
:1003E0002946E44802F076FF2A46E349E14802F054
:1003F0003DFF28252946E14802F06CFF2A46CB49FB
:10040000DE4802F033FFBDE8FE8310B5002401246E
:100410002246D949D74802F052FFFF222821C3487B
:1004200009F00FFF28242246C049D44802F047FFB4
:10043000BE4810BDF8B50446D1480078D1490870CF
:10044000CF480470022C21D10846007801281DD124
:1004500000BF5C21B7A009F085FE28B15C21B5A0E2
:1004600009F080FE401C00E0B2A0054609F015FC32
:10047000064640F2A110C44B2A4631460090C3A064
:1004800009F096FC00BF06F01EFC69E0012C20D1AB
:10049000BC48007802281CD106F023FC00BF5C2178
:1004A000A4A009F05FFE28B15C21A2A009F05AFEC9
:1004B000401C00E09FA0054609F0EFFB064640F215
:1004C000A710B14B2A4631460090BBA009F070FC42
:1004D00046E0082C21D1AB48007801281DD100BF8F
:1004E0005C2194A009F03EFE28B15C2191A009F0A6
:1004F00039FE401C00E08FA0054609F0CEFB064601
:1005000040F2AB10A04B2A4631460090B5A009F04E
:100510004FFC00BF06F0D7FB22E0012C20D1994808
:10052000007808281CD106F0DCFB00BF5C2181A00C
:1005300009F018FE28B15C217EA009F013FE401CD2
:1005400000E07CA0054609F0A8FB06464FF4D970F0
:100550008D4B2A4631460090AEA009F029FC00BF21
:10056000F8BD2DE9F04194B00024002600250820B4
:10057000FFF760FF28210AA809F08DFE00BF02E204
:10058000642009F07DFB0AA901EBC40004F057F8D0
:100590000646002E66D000BF5C2166A009F0E2FD91
:1005A00028B15C2163A009F0DDFD401C00E061A0E2
:1005B000074609F072FB80460AA800EBC400C07928
:1005C0000AA901EBC40189790AAA02EBC402527993
:1005D000CDE90804CDE906210AA800EBC4000079A2
:1005E0000AA901EBC401C9780AAA02EBC4029278F5
:1005F0000AAB03EBC4035B78CDE90232CDE904100A
:100600000AA810F83400BC218E4B3A46CDE9001000
:1006100041468DA009F0CCFB00BF00BF5C2145A086
:1006200009F0A0FD28B15C2142A009F09BFD401C0F
:1006300000E040A0074609F030FB8046BD20814B1A
:100640003A464146009090A009F0B2FB00BF01205D
:10065000FFF7F0FE0122114695A004F00CFB14B048
:10066000BDE8F081012C5EDB621E0AAB03EBC20128
:100670000AAA02EBC400082209F048FD002852D063
:1006800000BF5C212BA009F06DFD28B15C2129A0E1
:1006900009F068FD401C00E026A0074609F0FDFABD
:1006A0008046601E611E0AAA02EBC101C979621E62
:1006B0000AAB03EBC2029279631E0DF1280C0CEB1E
:1006C000C3035B79CDE90632CDE908100AA901EB35
:1006D000C0000079611E0AAA02EBC101C978621E3E
:1006E0000AAB03EBC2029278631E0CEBC3035B7888
:1006F000CDE90232CDE90410601E0AA911F83000DC
:10070000C421504B3A46CDE9001041466B4809F0F0
:100710004FFB00BF00BF5C2106A009F023FD18B10C
:100720005C2104A0CCE02CE1CEE00000B408002065
:1007300000D807082E2E5C6170705C7077645C6175
:1007400070705F7077642E6300000000DCA6000804
:100750005B256C645D5B2538735D5B2538735D5B81
:10076000252D33645D5B494E464F5D3A2025780D5B
:100770000A00000000F007080C00002000F807083D
:10078000180000203C00002018A700085B256C64BE
:100790005D5B2538735D5B2538735D5B252D3364A8
:1007A0005D5B494E464F5D3A20BFD5CFD0B5BDCB3E
:1007B000A2BFA8200D0A00005B256C645D5B253894
:1007C000735D5B2538735D5B252D33645D5B494E3E
:1007D000464F5D3A20CBA2BFA8B5BDBFD5CFD02034
:1007E0000D0A00005B256C645D5B2538735D5B253D
:1007F00038735D5B252D33645D5B494E464F5D3A32
:1008000020BFD5CFD0B5BDD0B4D0C2BFA8200D0A6F
:10081000000000005B256C645D5B2538735D5B2523
:1008200038735D5B252D33645D5B494E464F5D3A01
:1008300020D0B4D0C2BFA8B5BDBFD5CFD0200D0A3F
:1008400000000000E7A600085B256C645D5B2538AE
:10085000735D5B2538735D5B252D33645D5B494EAD
:10086000464F5D3A205B2578202578202578202585
:1008700078202578202578202578202578205D632C
:100880006E743A25640D0A005B256C645D5B253847
:10089000735D5B2538735D5B252D33645D5B494E6D
:1008A000464F5D3A2066616C736531200D0A000089
:1008B000B4E6B4A2CAA7B0DC00000000B0AC0008E7
:1008C00009F050FC401C01E0AFF29810074609F017
:1008D000E4F980460AA800EBC400C1790AA800EB3D
:1008E000C40082790AA800EBC40040790AAB03EB8C
:1008F000C4031B79CDE90530CDE907210AA800EB37
:10090000C400C0780AA901EBC4018A780AA901EBE6
:10091000C40149780AAB13F83430CDE90131CDE98F
:100920000320C520FE4B3A4641460090FDA009F049
:100930003FFA00BF00BF5C21AFF2082009F012FCB3
:1009400030B15C21AFF2142009F00CFC401C01E036
:10095000AFF22020074609F0A0F98046C620F04BF0
:100960003A4641460090FEA009F022FA00BF01205D
:10097000FFF760FD01221146AFF2CC0004F07BF9D5
:100980006DE6601CC4B2042C7FF7FAAD00240AE0C7
:10099000FD4800EBC40108220AA809F0B7FB00B922
:1009A00003E0601CC4B2052CF2DB00BF052C31DA79
:1009B00000BF5C21AFF2842009F0D4FB30B15C2190
:1009C000AFF2902009F0CEFB401C01E0AFF29C207A
:1009D000074609F062F98046DB20D14B3A46414692
:1009E0000090EAA009F0E4F900BF0120FFF722FD22
:1009F00001221146F0A004F03EF9F34804700125ED
:100A00002946F24802F066FC2A46EF49EF4802F018
:100A10002DFC24E6EC480078052802DB0020EA499A
:100A20000870D949E84A127801EBC200FF22082178
:100A300009F007FCD448E449097800EBC1000A99A1
:100A400001600B994160E0480078401CDE49087065
:100A500001252946DD4802F03DFC2A46DA49DB48FB
:100A600002F004FC28252946D94802F033FC2A4626
:100A7000C549D74802F0FAFB0120FFF7DBFC012251
:100A80001146D4A004F0F7F800BF5C21AFF25C304F
:100A900009F068FB30B15C21AFF2683009F062FB0D
:100AA000401C01E0AFF27430074609F0F6F88046CA
:100AB000F6209B4B3A4641460090C9A009F078F9D0
:100AC00000BF00BFCBE5F0B58BB0CE4CD4E902013E
:100AD00045180822CC49204608F0D4FD00BF5C210F
:100AE000AFF2B03009F03EFB30B15C21AFF2BC3068
:100AF00009F038FB401C01E0AFF2C830064609F0AF
:100B0000CCF807464FF4A171E068C04B3246CDE9FE
:100B100000103946BEA009F04BF900BFA089C0F310
:100B2000C700C749087008460078401EC54901EB58
:100B3000C0002968016069684160C1480078C24905
:100B40000978401AC149087000BF5C21AFF21C400F
:100B500009F008FB30B15C21AFF2284009F002FB3C
:100B6000401C01E0AFF23440064609F096F8074613
:100B7000B3480078401EB34901EBC000C079B049CA
:100B80000978491EAF4A02EBC1018979AC4A127853
:100B9000521EAC4B03EBC2025279A94B1B785B1E71
:100BA000DFF8A0C20CEBC3031B79CDE90632CDE917
:100BB0000810A3480078401E614601EBC000C078D1
:100BC0009F490978491E624602EBC10189789C4A17
:100BD0001278521E634603EBC2025278984B1B7880
:100BE0005B1E1CF83330CDE90232CDE90410944885
:100BF000007840F24B11854B3246CDE90010394662
:100C0000934809F0D5F800BF0BB0F0BD70B58AB0BD
:100C10007D48FFF779FBC4B224B1012C5DD0022CD2
:100C200061D159E000BF5C21AFF2F84009F09AFAB7
:100C300030B15C21AFF2045009F094FA401C01E09D
:100C4000AFF21050054609F028F806464FF48970B7
:100C5000804B2A46314600907FA009F0A9F800BFDA
:100C600000BF5C21AFF2345009F07CFA30B15C2156
:100C7000AFF2405009F076FA401C01E0AFF24C5060
:100C8000054609F00AF806465F48C0795E49897949
:100C90005D4A52795C4B1B79CDE90532CDE90710ED
:100CA0005948C27881784078574B1B78CDE901309C
:100CB000CDE9031240F21310664B2A4631460090EC
:100CC00018A009F075F800BF04F046FCFFF7FBFE22
:100CD00000206B49087007E006E00122114669A078
:100CE00003F0C9FF00E000BF00BF0AB070BDF0B55F
:100CF0008DB000200B900C90424C2169A0684518E3
:100D000008220BA9204608F0F7FC00BF5C21AFF2D7
:100D1000DC5009F027FA08B15C21B7E0BCE0000024
:100D2000E7A600085B256C645D5B2538735D5B2579
:100D300038735D5B252D33645D5B494E464F5D3AEC
:100D4000205B257820257820257820257820257897
:100D5000202578202578202578205D0D0A000000C8
:100D60005B256C645D5B2538735D5B2538735D5B6B
:100D7000252D33645D5B494E464F5D3A2066616CBC
:100D8000736532200D0A0000B40800205B256C64F6
:100D90005D5B2538735D5B2538735D5B252D3364A2
:100DA0005D5B494E464F5D3A20B8C3BFA8D2D1BE65
:100DB000ADB4E6D4DA0D0A00B4CBBFA8D2D1BEAD33
:100DC000B4E6D4DA000000000C00002000F00708B0
:100DD00000F80708B4E6B4A2B3C9B9A60000000041
:100DE0005B256C645D5B2538735D5B2538735D5BEB
:100DF000252D33645D5B494E464F5D3A204F4B0DC8
:100E00000A0000001C00002031000020FFA600089E
:100E10005B256C645D5B2538735D5B2538735D5BBA
:100E2000252D33645D5B494E464F5D3A2066696609
:100E30006F205B77726974652025645D0D0A000080
:100E400008000020DC080020090000200A00002023
:100E500068AC0008F3A600085B256C645D5B253870
:100E6000735D5B2538735D5B252D33645D5B494E97
:100E7000464F5D3A20CBA2BFA8B3C9B9A60D0A0060
:100E800030000020CEDED0A7BFA80000AFF25C701B
:100E900009F068F9401C01E0AFF26870064608F0FE
:100EA000FCFE07464FF4B5712069554B3246CDE93B
:100EB0000010394653A008F07BFF00BF208AC0F322
:100EC000C7005C4908705C4800780978401A5B49A3
:100ED000087058480078401E594901EBC000296845
:100EE00001606968416000BF5C21AFF2B87009F031
:100EF00039F930B15C21AFF2C47009F033F9401C0C
:100F000001E0AFF2D070064608F0C7FE0746494838
:100F10000078401E4A4901EBC000C0794549097874
:100F2000491E474A02EBC1018979424A1278521E92
:100F3000434B03EBC20252793E4B1B785B1EDFF83A
:100F400000C10CEBC3031B79CDE90632CDE90810D3
:100F500038480078401E614601EBC000C178354832
:100F60000078401E624602EBC0008278314800786B
:100F7000401E634603EBC00040782E4B1B785B1E7F
:100F80001CF83330CDE90230CDE90421294800783E
:100F90004FF4B9711A4B3246CDE900103946294851
:100FA00008F006FF00BF0DB0F0BD2748007870477D
:100FB00010B50122114625A003F05DFE0220FFF7C7
:100FC00039FA10BD10B50122114622A003F053FEDC
:100FD0000120FFF72FFA10BD10B51B48007801283B
:100FE00004D0022805D0042807D105E005F034FE1E
:100FF00004E0FFF70BFE01E000E000BF00BF10BD02
:101000000BA700085B256C645D5B2538735D5B2571
:1010100038735D5B252D33645D5B494E464F5D3A09
:10102000206669666F205B726561642025645D0DD2
:101030000A00000009000020080000200A0000202B
:10104000DC08002068AC000818000020C7EBCBA229
:10105000BFA80000CBA2BFA8BDE1CAF800000000F5
:1010600010B58CB004461E230BAA03A9204600F03D
:10107000CFFC0090009810B101200CB010BD9DF87D
:101080002C00044400200B900EE0F8489DF82C2022
:1010900050F8221003A800F023FC00B908E09DF8E6
:1010A0002C00401CC0B20B909DF82C000728ECD3FC
:1010B00000BF9DF82C00072875D2DFE800F004057A
:1010C0000C2E5C88B30000BFE9A008F071FEE9A017
:1010D00008F06EFED3E0E6A008F06AFEE8A008F093
:1010E00067FE00200B900EE0F54800689DF82C206C
:1010F00000EBC2004168F3A008F05AFE9DF82C00F6
:10110000401CC0B20B90EE48007D9DF82C10884228
:10111000EADCD7A008F04CFEB1E0D5A008F048FE0C
:10112000EAA008F045FE00200B901AE0E4490968A7
:101130009DF82C2001EBC20101AB02AA486803A96B
:1011400000F08CFCDE4800689DF82C1050F831202F
:1011500003A9EEA008F02CFE9DF82C00401CC0B2A4
:101160000B90D748007D9DF82C108842DEDCC0A093
:1011700008F01EFE83E0BEA008F01AFE0BAA03A929
:10118000204600F047FD9DF82C00D0B9694603A821
:1011900000F0D9FB0B909DF82C0028B9E0A0009935
:1011A00008F006FE0FE068E09DF82C00042801D04E
:1011B000022062E7DDA008F0FBFD0120C049C875F0
:1011C00001E0022059E7AAA008F0F2FD57E0A8A02C
:1011D00008F0EEFD0BAA03A9204600F01BFD9DF8C8
:1011E0002C00C8B9694603A800F0ADFB0B909DF830
:1011F0002C0020B9D2A0009908F0DAFD0EE09DF88D
:101200002C00042801D0022037E7D0A008F0D0FD40
:101210000020AB49C87501E002202EE794A008F039
:10122000C7FD2CE092A008F0C3FD0BAA03A920463D
:1012300000F0F0FC9DF82C00C8B9694603A800F046
:1012400082FB0B909DF82C0078B99D49009881F89D
:10125000EC00084690F8EC0018B1C1A008F0A8FD19
:1012600007E0C6A008F0A4FD03E0022005E7022085
:1012700003E77FA008F09CFD01E00120FDE600BF30
:101280000020FAE64FF08040008A20F001004FF085
:10129000804108824FF6FF70888500208884884945
:1012A000C1F8F00070474FF08040008A00F0010064
:1012B00040B18348D0F8F0004FF6FF7108448049F0
:1012C000C1F8F0007E48D0F8F0004FF08041898CE2
:1012D00008447B49C1F8F0000846D0F8F000704798
:1012E00010B54FF08040008A00F0010048B1744909
:1012F0000869804700204FF0804188844FF47A705D
:1013000088854FF08040008A20F001004FF0804136
:10131000088210BD7FB505460C460121084606F03F
:10132000F4FDADF80850ADF804400020ADF80A0017
:10133000ADF8060001A94FF0804007F03BF901220B
:101340004121880707F0ADFC1C208DF80000032028
:101350008DF801008DF8020001208DF80300684629
:1013600005F00DFE0121880707F080FC7FBD10B558
:10137000044604EBC40000EB04100122C2EB800021
:1013800081B24FF47A70FFF7C5FF01204C49C87550
:1013900010BD30B595B0054613AB12AA09A9284671
:1013A00000F05CFB044614B1204615B030BD0020AF
:1013B000149026E0424909689DF8502001EBC201D3
:1013C00013AB11AA486801A900F048FB04460CB110
:1013D0002046EAE709A901A800F082FA60B99DF861
:1013E00044009DF84810884201DD0220DDE79DF8A9
:1013F0005000334988750AE09DF85000401CC0B287
:1014000014902F48007D9DF850108842D2DC00BF18
:101410002B48007D9DF85010884201D10420C4E77C
:1014200014A9284600F067FC04460CB12046BCE72E
:101430009DF85000224948750020B6E72DE9F0419B
:101440009AB01F48847D007DA04202DC1AB0BDE83E
:10145000F0811B49096801EBC40106AB07AA486883
:1014600008A900F0FBFA0026DBE0000040000020A5
:101470000D0A0000D6B8C1EECAA7D0A70D0A000019
:101480002D2D2D2D2D2D2D2D2D2D2D2D2D2D2D2D8C
:101490002D2D2D2D2D2D2D2D2DBAAFCAFDC7E5B526
:1014A000A52D2D2D2D2D2D2D2D2D2D2D2D2D2D2DF4
:1014B0002D2D2D2D2D2D2D2D2D2D2D2D200D0A00D9
:1014C0007C00002025730D0A000000002D2D2D2D1D
:1014D0002D2D2D2D2D2D2D2D2D2D2D2D2D2D2D2D3C
:1014E0002D2D2D2D2DBAAFCAFD204944202D2D2D97
:1014F0002D2D2D2D2D2D2D2D2D2D2D2D2D2D2D2D1C
:101500002D2D2D2D2D2D2D2D200D0A00257320691B
:10151000642069733A0D0A3058253038580D0A0096
:101520004845583A305825580D0A00003136BDF864
:10153000D6C6B2CECAFDCFD4CABE210D0A00000065
:101540004445433A256C750D0A0000003130BDF862
:10155000D6C6B2CECAFDCFD4CABE210D0A00000045
:1015600052756E2054696D652043616C63756C61C2
:1015700074696F6E204F4E0D0A00000052756E2088
:1015800054696D652043616C63756C6174696F6E3D
:10159000204F46460D0A0000AD48008B0121B140A6
:1015A0000840D8B12221ABA008F002FC304600F080
:1015B00095FBA749243147183946A7A008F0F8FB46
:1015C0002221A4A008F0F4FB304600F087FBA049DC
:1015D0002431084410A941F8260018E0304600F0F4
:1015E0007DFB9B492431085810A941F826009848F2
:1015F000C07D30B910A850F8261098A008F0D8FB8C
:1016000005E010A850F8261095A008F0D1FB9DF831
:101610001C00401EB04202D093A008F0C9FB701C11
:10162000C6B29DF81C008642B6DBFFF72BFE884849
:10163000407D0B280DD2DFE800F0060D151E273285
:101640003F4E5F7287008249096851F83400804735
:10165000054690E07E4A126852F834101098884788
:10166000054688E07A4B1B6853F83420DDE9100109
:10167000904705467FE0764F3F6857F8343010A812
:1016800007C89847054676E0DFF8C4C1DCF800C01B
:101690005CF8347010A80FC8B84705466BE0149882
:1016A000DFF8ACC10090DCF800C05CF8347010A822
:1016B0000FC8B84705465EE0DDE91401DFF890C1C8
:1016C000CDE90001DCF800C05CF8347010A80FC848
:1016D000B84705464FE0DDE914121698DFF870C1EF
:1016E000CDE900120290DCF800C05CF8347010A85C
:1016F0000FC8B84705463EE0DDE91423DDE91610C2
:10170000DFF84CC1CDE90023CDE90210DCF800C0C0
:101710005CF8347010A80FC8B84705462BE0DDE927
:101720001523DDE91710CDE90123CDE90310149845
:10173000DFF81CC10090DCF800C05CF8347010A821
:101740000FC8B847054616E0DDE91623DDE9181095
:10175000CDE90223CDE90410DDE91401DFF8F0C082
:10176000CDE90001DCF800C05CF8347010A80FC8A7
:10177000B847054600BF00BFFFF795FD9DF818006C
:1017800001280CD13248C07D20B9294637A008F085
:101790000FFB08E0294637A008F00AFB03E0AFF290
:1017A000303008F005FB2A4890F8EC0088B1284852
:1017B000D0F8F0000A21B0FBF1F201FB1207244837
:1017C000D0F8F000B0FBF1F83A4641462CA008F002
:1017D000EFFA00BF3AE670B53148008800F40040E7
:1017E000002833D02E48057800202E494855184847
:1017F00081682C48884704461CB91549C868804749
:1018000021E02848FFF72CFC0546012D00D02C468E
:10181000CCB1012C06D0022C08D0032C0AD0042C09
:1018200010D10BE020A008F0C3FA0BE021A008F0D3
:10183000BFFA07E022A008F0BBFA03E023A008F0FB
:10184000B7FA00BF00BF00201549088070BD000036
:101850007C0000202563000025730000256C7500C6
:1018600030582558000000002C0000003D256C7504
:101870003B0D0A003D305825583B0D0A0000000082
:1018800046756E6374696F6E2052756E2054696D73
:10189000653A25642E2531646D730D0A0000000041
:1018A00074010020DC0C0020BAAFCAFDB4EDCEF309
:1018B000210D0A00B2CECAFDB4EDCEF3210D0A000F
:1018C000B2CECAFDCCABB6E0210D0A00CEB4D5D263
:1018D000B5BDC6A5C5E4B5C4BAAFCAFD210D0A00A1
:1018E00002460AE010780B78984201D00120704738
:1018F000107800B902E0521C491CF3E700BF002039
:10190000F5E706E002780A70027802B902E0401CAE
:10191000491CF7E700BF70470146002005E00A7840
:1019200002B903E0421CD0B2491CF8E700BF70477F
:1019300010B50246012000E050430B1EA1F1010446
:10194000E1B2F9D110BD2DE9F04307460E4600255E
:101950004FF00A083C46002030601FE0207839280C
:1019600002DC207830280ADA2078462802DC207849
:10197000412804DA2078582809D1012D07D1207890
:10198000412801DB4FF01008681CC5B205E0207843
:1019900000B904E00120BDE8F083641CDEE700BF6D
:1019A0003C46B8F1100F0FD1032D01DA0220F2E707
:1019B0002078302806D16078582803D1A41CA81EAE
:1019C000C5B204E00320E6E70DB90420E3E71BE01D
:1019D0000DB1681EC5B22078392806DC2078302881
:1019E00003DB2078A0F1300902E02078A0F137096C
:1019F00029464046FFF79CFF316809FB0010306024
:101A0000641C207800B900E0E2E700BF0020C2E7D4
:101A100010B50446002010700BE020780870641C9C
:101A2000491C1078401C10701078984201DB01208E
:101A300010BD2078202802D020780028EDD1002089
:101A4000087000BFF4E70146491C00E0491C087813
:101A5000202801D10029F9D1087870472DE9FF4FDE
:101A600085B080468946002700200490039001201D
:101A700002904FF0000B002544461DE020782028FE
:101A800016D005F07F00052812DA0DB945F0800563
:101A900005F07F00042803D120782A2800D00EE02A
:101AA000207805F07F010DF80100681CC5B202E046
:101AB000852D00D103E0641C20780028DED100BF12
:101AC0008DB1002005F07F010DF80100CBA1684623
:101AD000FFF706FF18B900210898017002E0012104
:101AE0000898017000254FF0000A444614E0641C79
:101AF0000AF1010000F0FF0A2078202802D02078A7
:101B00002A2809D12046FFF79EFF0646282E03D03B
:101B10002A2E01D0CDF810A02078282802D02078D5
:101B20000028E4D14446049810B10498401C0444B1
:101B30004FF0000A002654E0207810B94FF0010A57
:101B400050E02078282803D116B9781CC7B213E0DA
:101B50002078292808D13EB917B1781EC7B201E014
:101B60004FF0010A47B93DE02078222804D10EB990
:101B7000012000E00020064647B9207820282FD019
:101B8000207889F8000009F1010929E020782C2843
:101B900004D101200290681CC5B214E020782028EE
:101BA00011D0207828280ED04DB9BBF1050F06DAE8
:101BB00020780DF80B000BF1010000F0FF0B0298EC
:101BC000401CC0B20290012F0AD10298022807D10E
:101BD0000298401CC0B202900398401CC0B203900F
:101BE000641CA9E700BF0398012809D100200DF863
:101BF0000B0082A16846FFF773FE08B9002003902E
:101C0000079903980870002089F80000504609B031
:101C1000BDE8F08FF0B503461546002000220026EF
:101C2000002455E01F782C2F01D104B901221F7820
:101C3000292F01D01F780FB904B94AE0002E34D102
:101C40001F78302F02DB1F78392F11DD1F78612FAD
:101C500002DB1F78662F0BDD1F78412F02DB1F7818
:101C6000462F05DD1F78582F02D01F78782F0CD112
:101C700002B12EE01F78612F03DB1F78203F0F7029
:101C800001E01F780F70491C1FE01F78222F04D13C
:101C900002B11EE00126012417E01F78202F14D086
:101CA0001F782C2F11D0FF2613E01F78222F00D190
:101CB000002402B10DE044B11F785C2F02D15B1CFF
:101CC000471CF8B21F780F70491C471CF8B25B1C08
:101CD000A8E700BF00270F702E70F0BD024600205D
:101CE000002105E0474B5B5C0344D8B24B1CD9B2E2
:101CF0009142F7DB70472DE9F043B5B005460F463A
:101D00000024002604E000213E488155701CC6B224
:101D10000A2EF8DB06E06D1C287818B9012035B0D2
:101D2000BDE8F08328782828F5D16D1C61E034AA3D
:101D300069462846FFF76EFF064635449DF8D000F9
:101D400020B1012827D0FF284CD149E09DF80000A0
:101D500000B333A96846FFF7F6FD06460EB1022030
:101D6000DDE72046FFF7BAFF26490A31339A0A50C9
:101D7000A1F12400008B0121A140884321491A3997
:101D8000088304211F480155601CC4B20A2C01DDE0
:101D90000320C4E726E06846FFF7BEFD401C00F0C4
:101DA000FF082046FFF79AFF16490A3100EB0109A8
:101DB00049466846FFF7A5FD12481A38018B0120F5
:101DC000A040014388B20F491A3908830D4800F832
:101DD0000480601CC4B20A2C01DD03209FE701E0EF
:101DE00002209CE700BF2878292801D0287800B974
:101DF00000E09CE700BF3C70002090E7766F6964CC
:101E00000000000096000020014600BF704700BFA0
:101E10004B4A128802F04002002AF9D0C2B2484B65
:101E20001B1D1A807047014600BF704710B586B071
:101E30000446012144F2040006F05AF84FF4007001
:101E4000ADF8140003208DF8160018208DF8170047
:101E500005A93C4805F02AFD4FF48060ADF8140058
:101E600004208DF8170005A9364805F01FFD252030
:101E70008DF8000003208DF801008DF8020001208C
:101E80008DF80300684605F07AF801940020ADF85B
:101E90000800ADF80A00ADF80C00ADF810000C20F9
:101EA000ADF80E0001A9264807F001FA012240F220
:101EB0002551234807F093FA0121214807F083FABE
:101EC00006B010BD10B540F225511D4807F06CFB5F
:101ED00010B31B4807F0E8FAC4B21B48008800F4AE
:101EE0000040C8B91848008800F4804060B10A2C4E
:101EF00003D000201449088020E01348008840F4F3
:101F000000401149088019E00D2C06D10E480088C8
:101F100040F480400C49088010E00B480088C0F372
:101F20000D000A490C5408480088401C06490880E6
:101F300008460088C72801DD0020088010BD000089
:101F4000003801400008014074010020DC0C002032
:101F500010B5FF21354808F07CF90020344908808D
:101F60003449087010BD70B504460D462946204618
:101F700001F0D4FB022130A001F0D0FB70BD70B5A0
:101F800004460D462946204601F0C8FB70BD2DE9E8
:101F9000FC410024002500BF43E028A130A000F050
:101FA0005FF90546002D1AD000BF5C212EA008F075
:101FB000D9F828B15C212CA008F0D4F8401C00E02E
:101FC00029A0064607F069FE07465120304B3246ED
:101FD0003946CDE900052FA007F0EAFE1FE00122F7
:101FE00011463CA002F047FE00BF5C211EA008F095
:101FF000B9F828B15C211CA008F0B4F8401C00E03E
:1020000019A0064607F049FE07465820204B3246E5
:102010003946009033A007F0CBFE00BF03E0601C00
:10202000C4B2042CB9DB00BFBDE8FC8168130020FA
:10203000AA010020AC0100200D0A00003333333028
:10204000326632303537653134306333386131339D
:1020500035393131623233393736346300000000AC
:102060006D616368696E65002E2E5C6170705C57EF
:10207000694669546F436C6F75645C48414C5F57A7
:10208000694669546F436C6F75642E6300000000ED
:1020900028A700085B256C645D5B2538735D5B25B4
:1020A00038735D5B252D33645D5B4552524F5D3A5D
:1020B00020436F6E6E65637420546F205365727693
:1020C0006572204552524F52202564202C20200D4D
:1020D0000A000000C1ACBDD3D4C6C6BDCCA8B3C9EC
:1020E000B9A600005B256C645D5B2538735D5B25DC
:1020F00038735D5B252D33645D5B4552524F5D3A0D
:1021000020436F6E6E65637420546F205365727642
:102110006572204F4B0D0A0010B5FFF719FF0F2114
:10212000D7A0FFF720FFDA4807F0D1FDD9A1DA48A0
:1021300007F0DAFF10B94FF0FF3010BD0020FCE7C8
:1021400070B5A0B004460D468021684608F0A3F89B
:10215000FFF7FEFE2B462246D0A1684607F034FE6C
:10216000684608F00AF8C6B231466846FFF7FBFE3B
:10217000D04807F0ACFDC7A1C74807F0B5FF18B9B4
:102180004FF0FF3020B070BD0020FBE770B5A0B06D
:1021900004460D468021684608F07DF8FFF7D8FE1A
:1021A0002B462246C4A1684607F00EFE684607F09B
:1021B000E4FFC6B231466846FFF7D5FEC54807F0D2
:1021C00086FDB4A1B44807F08FFF18B94FF0FF3077
:1021D00020B070BD0020FBE72DE9F041A0B006461D
:1021E0000C46002500278021684608F054F8FFF7C8
:1021F000AFFE2246B8A1684607F0E6FD684607F044
:10220000BCFF00F0FF0841466846FFF7ACFE40F611
:10221000B83007F05CFD9FA19F4807F065FF18B933
:10222000681E20B0BDE8F081FFF792FE21463046DF
:10223000FFF7A5FE00250EE0ABA1974807F054FF7D
:1022400010B96FF0010701E0002706E0904807F0A1
:102250003EFD681CC5B23C2DEEDB00BF3846E0E712
:102260002DE9F041A0B006460F460024002580214C
:10227000684608F010F800BF08E0FFF74DFF08B906
:10228000002505E04FF0FF35601CC4B2032CF4DBE1
:1022900000BF002D03DA284620B0BDE8F0810024FD
:1022A0000AE093A195A0FFF74BFF08B9002505E0D0
:1022B0006FF00105601CC4B2032CF2DB00BF002DDF
:1022C00001DA2846E8E700240BE042F298118DA0DD
:1022D000FFF75CFF08B9002505E06FF00205601C00
:1022E000C4B2032CF1DB00BF002D01DA2846D3E78E
:1022F0003B46324687A1684607F066FD684607F010
:102300003CFF00F0FF0841466846FFF765FF0028E4
:1023100002DA6FF0030514E000240FE08AA15E48A2
:1023200007F0E2FE10B96FF0040501E0002507E0B8
:1023300042F2107007F0CBFC601CC4B2322CEDDB13
:1023400000BF2846A8E72DE9F041A0B004460D469D
:10235000002600278021684607F09DFF23462A4675
:102360007CA1684607F030FD684607F006FF00F0E4
:10237000FF0841466846FFF72FFF002801DA771E65
:1023800014E000260FE070A1434807F0ADFE10B93D
:102390004FF0FF3701E0002707E042F2107007F02E
:1023A00096FC701CC6B2322EEDDB00BF384620B062
:1023B000BDE8F0812DE9F04107460E4600240025D6
:1023C00074A1384607F090FE0446E4B1A179607923
:1023D000303800EB800001EB40003038C5B26FA10F
:1023E000384607F081FE441C2A462146304607F055
:1023F000E3FE00207055314669A007F0D9FC29465C
:102400006CA007F0D5FC2846BDE8F08110B5044665
:102410006DA1204607F068FE20B106216CA0FFF7F1
:10242000DBFE2BE06CA1204607F05EFE002825D0E5
:102430006BA1204607F058FE50B16DA1204607F071
:1024400053FE00281AD0062161A0FFF7C5FE15E053
:102450006AA1204607F048FE80B165A1204607F03A
:1024600043FE18B16AA007F0A3FC07E06BA1204669
:1024700007F03AFE10B16CA007F09AFC10BD000006
:1024800041542B43574D4F44455F4355523D310016
:10249000A08601004F4B00006813002041542B43DD
:1024A000574A41505F4355523D222573222C222525
:1024B0007322000060EC530041542B4349505354A5
:1024C0004152543D22544350222C222573222C2564
:1024D0006400000060E3160041542B43495053450B
:1024E0004E443D256400000053454E44204F4B00B0
:1024F0006E65776C616E6465647500006E65776CFF
:10250000616200003132302E37372E35382E3334A9
:10251000000000007B2274223A312C226465766927
:102520006365223A222573222C226B6579223A2296
:102530002573222C22766572223A2276302E302E96
:10254000302E30227D000000227374617475732276
:102550003A3000007B2274223A332C226461746189
:1025600074797065223A312C226461746173223A65
:102570007B22616C61726D223A7B222573223A259F
:10258000647D7D2C226D73676964223A3030317D21
:10259000000000002B4950442C0000003A000000CD
:1025A000CAD5B5BD4950CAFDBEDDA3BA25730D0A13
:1025B00000000000CAD5B5BD4950CAFDBEDDB3A4B8
:1025C000B6C83D25640D0A0024234154230D0000A4
:1025D000244F4B23230D00002274223A35000000C3
:1025E00022617069746167223A226374726C2200FE
:1025F0002264617461223A31000000002261706936
:10260000746167223A22646566656E736522000014
:10261000B2BCB7C0A3A10D0A00000000226461741F
:1026200061223A3000000000B3B7B7C0A3A10D0A81
:10263000000000002DE9F047A2B004460D46164602
:102640000027B846B946802102A807F024FE334689
:102650002246F8A102A8009507F0B6FB00BF02A829
:1026600007F08BFD00F0FF0A514602A8FFF7B4FD0A
:10267000002802DA4FF0FF3814E000270FE0FCA139
:10268000FE4807F031FD10B94FF0FF3802E04FF07F
:10269000000806E0FA4807F01AFB781CC7B2322F90
:1026A000EDDB00BFB8F1000F07D0B9F1020F04DA7B
:1026B00009F1010000F0FF09D1E7404622B0BDE872
:1026C000F0872DE9F04107460E46002400258021C1
:1026D000EC4807F0BEFD3246EBA1EA4807F074FB78
:1026E000E849384607F000FD044614B90020BDE86B
:1026F000F081E44807F041FD45B22C448021E148D7
:1027000007F0A7FD00250DE02078392806DC2078A9
:10271000302803DB2078DB49485500E004E0681CE2
:1027200045B2641C0A2DEFDB00BF0021D54A681CAE
:1027300011541046DBE72DE9F04780460E46002491
:10274000A146002700258021D14807F082FD3246AE
:10275000D0A1CF4807F038FBCD49404607F0C4FC74
:1027600004462CB9CDA007F023FB0020BDE8F0877C
:10277000C74807F002FD45B22C448021C44807F049
:1027800068FD00250DE02078392806DC2078302807
:1027900003DB2078BE49485500E004E0681C45B2E0
:1027A000641C0A2DEFDB00BF0021B94A681C1154DC
:1027B000104607F0E2FC00F0FF09B9F1010F06D066
:1027C000B9F1020F08D0B9F1030F26D110E0B048DB
:1027D00000783038C7B221E0AD4840783038AC4995
:1027E0000978303901EB810100EB4100C7B215E0F7
:1027F000A74880783038A6490978303901EBC10202
:1028000002EB011100EB8101A1484078303800EB68
:10281000800001EB4000C7B200E000BF00BF3846B7
:10282000A4E72DE9F041A2B00446002500269EA1B0
:10283000204607F059FC002839D006219CA0FFF75C
:10284000CBFC002819DA00BF5C219BA007F08AFCB2
:1028500028B15C2198A007F085FC401C00E096A000
:10286000074607F01AFA8046C5209B4B3A46414678
:1028700000909AA007F09CFA4AE200BF5C218EA06B
:1028800007F070FC28B15C218BA007F06BFC401CAA
:1028900000E089A0074607F000FA8046C9208E4B69
:1028A0003A46414600909AA007F082FA30E2A3A18E
:1028B000204607F019FC0028DED0A2A1204607F030
:1028C00013FC002870D0802102A807F0E4FCA3A12B
:1028D000204607F009FC002849D000BF5C2176A003
:1028E00007F040FC28B15C2173A007F03BFC401CC2
:1028F00000E071A0074607F0D0F98046D320764B60
:102900003A464146009098A007F052FA00BFFEF701
:102910004FFB9FA12046FFF7D4FE05462A469EA105
:1029200002A807F051FA02A807F027FCC7B23946FF
:1029300002A8FFF751FC00289EDA00BF5C215EA0D0
:1029400007F010FC28B15C215BA007F00BFC401CD9
:1029500000E059A0074607F0A0F98046DB205E4B57
:102960003A464146009096A007F022FAD0E1A0A195
:10297000204607F0B9FB002898D000BF5C214EA08C
:1029800007F0F0FB28B15C214BA007F0EBFB401CEB
:1029900000E049A0074607F080F98046E0204E4B52
:1029A0003A464146009000E033E094A007F000FA78
:1029B00000BFFEF707FB76A12046FFF782FE054623
:1029C0002A4698A102A807F0FFF902A807F0D5FB54
:1029D000C7B2394602A8FFF7FFFB0028C6DA00BFDE
:1029E0005C2135A007F0BEFB28B15C2132A007F0C6
:1029F000B9FB401C00E030A0074607F04EF98046C6
:102A0000E820354B3A46414600906DA007F0D0F9DA
:102A10007EE18EA1204607F067FB0028A6D080212A
:102A200002A807F038FC8FA12046FFF784FE064677
:102A300057A11BE17B2274223A332C22646174611A
:102A400074797065223A322C226461746173223A7F
:102A50007B222573223A7B222573223A25647D7DD1
:102A60002C226D73676964223A3030317D0000009A
:102A700022737461747573223A3000006813002069
:102A800040420F00240E0020222573223A0000004D
:102A90002E0E0020222573223A220000BFD5D7D661
:102AA000B7FBA3A10D0A000024234154230D00000D
:102AB000244F4B23230D00002E2E5C6170705C5759
:102AC000694669546F436C6F75645C6170705F63D5
:102AD0006C6F75642E63000035A700085B256C647D
:102AE0005D5B2538735D5B2538735D5B252D336435
:102AF0005D5B494E464F5D3A20B7A2CBCDD0C4CCEA
:102B0000F8B0FCCAA7B0DCA3A10D0A0D0A000000B2
:102B10005B256C645D5B2538735D5B2538735D5B9D
:102B2000252D33645D5B494E464F5D3A20D0C4CCC1
:102B3000F8B0FCA3A10D0A0D0A0000002274223A8D
:102B40003500000022617069746167223A22626F69
:102B50006F6C5F776F726B220000000022646174FB
:102B600061223A31000000005B256C645D5B253812
:102B7000735D5B2538735D5B252D33645D5B494E6A
:102B8000464F5D3A20BFAACABCC8A1BAC50D0A000B
:102B9000636D6469640000007B2274223A362C2243
:102BA000636D646964223A25732C227374617475B1
:102BB00073223A302C2264617461223A317D000024
:102BC0005B256C645D5B2538735D5B2538735D5BED
:102BD000252D33645D5B494E464F5D3A20B7A2CB4D
:102BE000CDCFECD3A6CAA7B0DCA3A10D0A0000008C
:102BF0002264617461223A30000000005B256C643D
:102C00005D5B2538735D5B2538735D5B252D336413
:102C10005D5B494E464F5D3A20D4DDCDA3C8A1BAD5
:102C2000C50D0A007B2274223A362C22636D64693A
:102C300064223A25732C22737461747573223A30BE
:102C40002C2264617461223A307D00002261706937
:102C5000746167223A226E756D6265725F646F7788
:102C60006E22000064617461000000002046FFF7DE
:102C700028FD05462A46AFF2E00102A807F0A4F8B5
:102C800002F093F902A807F078FAC7B2394602A811
:102C9000FFF7A2FA00281DDA00BF5C21AFF2E810AE
:102CA00007F060FA30B15C21AFF2F41007F05AFA85
:102CB000401C01E0AFF20020074606F0EEFF804620
:102CC000F620594B3A4641460090AFF20C1007F0FF
:102CD0006FF800BF00BF5C21AFF2242007F042FA7A
:102CE00030B15C21AFF2302007F03CFA401C01E02B
:102CF000AFF23C20074606F0D0FF8046F9204A4B51
:102D00003A464146CDE9000648A007F051F800BF19
:102D100022B0BDE8F08170B50546002444B12146DB
:102D20004FA007F045F801221146204601F0A3FF0D
:102D300070BD70B592B000244B48007878B14B4913
:102D40004B48FFF737FB4948FFF76BFD4748FFF754
:102D5000E2FF8021454807F07CFAFFF7F9F806F01A
:102D60009CFF44490968401A40F6B831884201D3B3
:102D7000012000E00020002854D006F08EFF3D49DD
:102D8000086000F0F1FD3C4880783B4949783A4AB8
:102D90001278394BDB79CDE90032CDE902103648A3
:102DA0008379828835A105A807F00EF805AA38486E
:102DB000017838A0FFF73EFC0446FFF7C9F834B1AC
:102DC00037480078401C40B23549087002E00020C6
:102DD00033490870324890F90000032822DD0020B2
:102DE0002F49087000BF5C21AFF2343007F0BAF908
:102DF00030B15C21AFF2403007F0B4F9401C01E083
:102E0000AFF24C30054606F048FF064640F253103C
:102E1000244B2A463146009023A006F0C9FF00BF8C
:102E2000FFF7B5F812B070BD35A700085B256C64DC
:102E30005D5B2538735D5B2538735D5B252D3364E1
:102E40005D5B494E464F5D3A20C9E8D6C3BCF5D418
:102E5000B1C8CBCAFDA3BA2564A3A10D0A00000026
:102E600025730D0A00000000AC010020A40D002015
:102E700068130020780100206814002025642D25A7
:102E8000642D25642025643A25643A2564000000F9
:102E90000A0000206E756D6265725F75700000003B
:102EA0007C0100204EA700085B256C645D5B253823
:102EB000735D5B2538735D5B252D33645D5B494E27
:102EC000464F5D3A20B6CFCFDFD6D8C1AC0D0A0051
:102ED00030B503460C46002106E0585C655CA8420C
:102EE00001D0002030BD491C9142F6DB0120F9E7FA
:102EF00070B505460E46002404E0295D9CA006F04E
:102F000057FF641CB442F8DB9AA006F051FF70BD75
:102F100070B504460D4698A006F04AFF29462046A3
:102F2000FFF7E6FF082221469748FFF7D1FF70BD63
:102F300030B502460B460020022113E0041244EA99
:102F40000024A0B2545C6040C0F3031460404FF60C
:102F5000FF7505EA003460400406240D80EA440051
:102F60004C1CE1B29C1CA142E8DB30BD7CB50025C5
:102F70000024FE222146641C0DF801202146641C19
:102F80000DF8012000222146641C0DF801200122C9
:102F90002146641C0DF801207C4802782146641CFF
:102FA0000DF8012003216846FFF7C2FF05462A12EB
:102FB0002146641C0DF80120EAB22146641C0DF87C
:102FC0000120BB222046611CCCB20DF8002000225B
:102FD000684602F024FD7CBD2DE9FF410024002657
:102FE0000022082102A803F069F8C6B29DF8080083
:102FF000FE283DD19DF80900FE2839D1032102A801
:10300000FFF796FF04469DF80F00BB2830D19DF8CE
:103010000E00E1B288422BD19DF80D00B0EB242FB9
:1030200026D19DF80A0020B99DF80C005849087077
:1030300000E000BF00BF00BF5C2156A007F092F87F
:1030400028B15C2153A007F08DF8401C00E051A08E
:10305000054606F022FE07464D480078AE21544B47
:103060002A46CDE900103946524806F0A1FE00BFBD
:10307000002002900390BDE8FF8138B500BF5C21BD
:1030800044A007F06FF828B15C2142A007F06AF86D
:10309000401C00E03FA0044606F0FFFD0546C520A9
:1030A000454B22462946009044A006F081FE00BF11
:1030B000FFF75CFF4D4806F00AFEFFF78DFF38BDB5
:1030C000F8B50025002404E0AA202F490855601C0B
:1030D000C4B2082CF8DB002208212B4802F09FFC28
:1030E000434806F0F4FD00220821424802F0E6FFC2
:1030F00005B2002D1FDD08213E48FFF709FF00281B
:1031000035D000BF5C2123A007F02CF828B15C214A
:1031100020A007F027F8401C00E01EA0064606F09D
:10312000BCFD0746F320344B32463946009033A0AD
:1031300006F03EFE1BE0002D19DC00BF5C2115A04F
:1031400007F010F828B15C2112A007F00BF8401C22
:1031500000E010A0064606F0A0FD0746F820264B2A
:1031600032463946009033A006F022FE00BFF8BD7B
:10317000257820000D0A000049534D204765742032
:10318000646174613A2000007D0100200A00002083
:103190000B0000202E2E5C6170705C706F746F638A
:1031A0006F6C5C706F746F636F6C2E630000000057
:1031B00059A70008E8AD000865A700085B256C6406
:1031C0005D5B2538735D5B2538735D5B252D33644E
:1031D0005D5B494E464F5D3A2070726F746F636F4E
:1031E0006C5F7461736B0D0A0000000020A1070082
:1031F000A08601008501002073A700085B256C6490
:103200005D5B2538735D5B2538735D5B252D33640D
:103210005D5B494E464F5D3A205349343333323A71
:1032200020526563656976652053756363657373C2
:103230000D0A00005B256C645D5B2538735D5B25C2
:1032400038735D5B252D33645D5B494E464F5D3AB7
:10325000205349343333323A2052656365697665C9
:10326000204572726F72200D0A000000F8B5074603
:103270000E46154600200090002403F0F8FF34208D
:1032800004F090FA15E0201D854203D9301900683A
:10329000009004E02A1B3119684606F08DFF3819AA
:1032A000009904F0F9F8042801D1241D01E000BFC1
:1032B000FEE7AC42E7D303F0E6FF2846F8BD70B561
:1032C00004460D46164632462146284606F074FF4F
:1032D000304670BD2DE9F04106460C46002500271A
:1032E00003F0C5FF342004F05DFAE70AC4F30A00D6
:1032F00000B17F1C00250AE04FF4006101FB05606E
:1033000003F0FAFF042801D000BFFEE76D1CBD42A8
:1033100003D2044800780428EED003F0B4FF002064
:10332000BDE8F0818D01002010B586B00446012172
:10333000082004F0DDFD0121880404F0E6FD6F485B
:1033400005F072FF4FF48060ADF8100003208DF897
:10335000120018208DF8130004A9694804F0A6FA99
:103360004FF40060ADF8100004208DF8130004A99C
:10337000634804F09BFA00940020ADF80400ADF817
:103380000600ADF80800ADF80C000C20ADF80A00FE
:1033900027208DF8140002208DF8150003208DF8E9
:1033A000160001208DF8170005A803F0E8FD694616
:1033B000524805F07CFF012240F225514F4806F0AB
:1033C0000EF801214D4805F0FEFF06B010BD70B5A6
:1033D00005460E46002400BF0CE000BF40214748D0
:1033E00006F0CCF80028F9D0295D444806F058F8DA
:1033F000601CC4B2B442F0DB70BD2DE9FC41044650
:103400000D460020019034E04FF47A7006F05FFC26
:103410003C48008801282CD13B48C068002828D0AF
:10342000012201A9384806F067F99DF80400A0427E
:103430001FD100203349088000BF5C2133A006F073
:1034400091FE28B15C2131A006F08CFE401C00E00A
:103450002EA0064606F021FC07468B202F4B324655
:10346000394600902EA006F0A3FC00BF0120BDE865
:10347000FC81681E80B2051EC6D12249088000BFAB
:103480005C2122A006F06EFE28B15C211FA006F090
:1034900069FE401C00E01DA0064606F0FEFB074644
:1034A00093201E4B32463946009027A006F080FC40
:1034B00000BF4FF0FF30DAE708B540F225510F4862
:1034C00006F072F8C0B101200E4908800B4805F0E3
:1034D000EBFFC0B200909DF800002549254A1288F4
:1034E000885424480088401C2249088001226946EB
:1034F000054806F0C7F800BF08BD000000480040BE
:10350000000C0140A8010020900100202E2E5C62DA
:1035100073705C7573617274332E63007FA700084B
:103520005B256C645D5B2538735D5B2538735D5B83
:10353000252D33645D5B494E464F5D3A20D3A6B4DA
:10354000F0B3C9B9A60D0A005B256C645D5B253834
:10355000735D5B2538735D5B252D33645D5B494E80
:10356000464F5D3A20D3A6B4F0CAA7B0DC0D0A00DE
:10357000380E0020A401002010B50121244805F0D8
:103580003EFEB8B10121224805F04AFE21480078EC
:1035900080B121480078401C1F4908700846007817
:1035A000032807DD00201B4908701B490870012013
:1035B0001A49087010BD7FB505460C460121202030
:1035C00004F0A3FCADF80450ADF800400020ADF8C5
:1035D0000600ADF8020069460D4804F0EBFF012239
:1035E00011460B4805F05DFB0121094805F03EFB43
:1035F00037208DF80C0000208DF80D0002208DF88A
:103600000E0001208DF80F0003A803F0B8FC7FBD69
:1036100000140040AD010020AE010020AC010020EC
:1036200010B586B004465548008840F48070534970
:1036300008800846008840F0200008804FF4A0630E
:1036400034220221032006F023F90121C80404F0EA
:103650005CFC0121102004F04BFC48480C3805F0BC
:10366000E3FD4FF48060ADF8140003208DF81600E0
:1036700018208DF8170005A9414804F017F94FF4F8
:103680000060ADF8140004208DF8170005A93C482F
:1036900004F00CF901940020ADF80800ADF80A0020
:1036A000ADF80C00ADF810000C20ADF80E0001A92B
:1036B00032480C3805F0FBFD012240F225512F481D
:1036C0000C3805F08CFE01212C480C3805F07BFEEF
:1036D00041F61F416320FFF76EFF0121294805F0E5
:1036E000C5FA06B010BD10B5044600BF23480C381B
:1036F000008800F040000028F8D021461F480C3810
:1037000005F0CEFE10BD10B5044603E02078FFF7AB
:10371000EAFF641C20780028F8D110BD70B504467B
:103720000D4603E02078FFF7DEFF641C281EA5F19C
:103730000101CDB2F6D170BD10B540F225510F4850
:103740000C3805F031FFC0B101200F49087000208E
:103750000E49087009480C3805F0A6FE0C490D4AC0
:10376000128888540B480088401C0A490880084683
:103770000088FF2801DD0020088010BD0C4C0040AF
:103780000010014000140040AD010020AE010020F7
:1037900068130020AA0100200146CA1701EB9272AB
:1037A0009210A1EB820292B9642091FBF0F200FB2F
:1037B000121050B94FF4C87091FBF0F200FB1210D8
:1037C00008B9012070470020FCE70120FAE700203B
:1037D000F8E72DE9F05F06460F4690469946DDE989
:1037E0000AAB002501214FF0C05004F08EFB0120F0
:1037F00004F0B5F904F03CFC40F2B270864203DB01
:1038000040F63300864201DDBDE8F09F40F2B2741D
:103810000AE02046FFF7C0FF10B19448054401E0DC
:1038200093480544601C84B2B442F2DB781EC7B2F0
:10383000002410E08F48005D40F2A321484305EBCF
:10384000C0153046FFF7A8FF18B1012C01D18A48F6
:103850000544601C84B2BC42ECDBA8F1010040F2DC
:10386000A321484305EBC015C9EB4911C1EB092160
:1038700005EB0111CAEB0A1201EB820101EB0B000F
:1038800004F0C3FB04F0F4FB00BFBDE710B5012159
:103890004FF0C05004F039FB012004F060F903F050
:1038A000D7FB012004F091FA00BF412004F0F5F9A4
:1038B0000028FAD04FF4807004F0A3FA012004F03D
:1038C000A6FA04F0DEFB04F0D3FB0121084604F065
:1038D00073FB04F0CDFB47F6FF7004F0A3FB04F08C
:1038E000C7FB10BD08B503208DF8000002208DF83D
:1038F000010000208DF8020001208DF803006846C9
:1039000003F03DFB08BD1CB50446FFF7EBFF0420A8
:1039100003F0D3FB4AF2A551884211D0FFF7B6FF5E
:103920003B200090172301220821019040F2E27011
:10393000FFF74FFF4AF2A551042003F0B2FB0EE05F
:103940007B2004F0AAF910B97A2004F0A6F904F05B
:1039500098FB0121084604F02FFB04F089FB04F0DA
:1039600005FB464804601CBD70B5002600240025F8
:1039700004F042FB06464048B6FBF0F4404800889D
:10398000A0423CD03E490C8040F2B27510E028467F
:10399000FFF702FF40B1B4F5B77F02D3A4F5B774C7
:1039A00004E0681C85B206E0A4F26D14681C85B2C0
:1039B000B4F5B67FEBD800BF32488580002516E00D
:1039C00030498888FFF7E8FE30B1012D04D11D2C65
:1039D00001D31D3C09E00CE02648405DA04203D81D
:1039E0002448405D241A00E003E0681C85B21C2CCA
:1039F000E6D200BF681C23498871601CC8711E484C
:103A0000B6FBF0F100FB11644FF46160B4FBF0F021
:103A10001C4908704FF46160B4FBF0F100FB1140E9
:103A20003C21B0FBF1F0174948704FF46160B4FBE2
:103A3000F0F100FB11403C21B0FBF1F201FB120060
:103A400010498870002070BD10B5012004F03EFBC5
:103A500050B1012004F04AFB0848006820B10A4830
:103A6000006806490968884710BD00000085E2012A
:103A70008033E1018DA7000880510100B0010020D2
:103A8000B401002068140020B801002010B5002403
:103A90000121022004F039FA4FF4A0631D22022113
:103AA000084605F0F5FE604800686049B0FBF1F09B
:103AB000401E84B24FF6FF705D4988800020088068
:103AC000C88048805B4804F075FD012221465948B2
:103AD00005F073F9002058490880012048805748B4
:103AE0000088C88000200881524804F0A0FD002111
:103AF0004FF0804005F0EAF9012212214D4805F00F
:103B0000D0F801214B4805F0B1F810BD10B50221E5
:103B1000484805F074FB70B30221464805F080FB6D
:103B200003F03BF8FDF741FA01280CD04448008827
:103B3000C82808DC43480078012804D140480088A0
:103B4000401C3F4908803E480088C82804DD00200A
:103B50003B4908803B490870364805F031FB3A493B
:103B6000088008460088354A1288104481B23148DE
:103B700005F014FB57E0FFE704212E4805F03FFB5A
:103B800090B104212B4805F04BFB2A4805F01BFBA4
:103B90002D490880084600882C4A1288104481B2BA
:103BA000244805F0FDFA3EE00821224805F027FBF5
:103BB00090B108211F4805F033FB1E4805F006FBB5
:103BC0002149088008460088214A1288104481B2A1
:103BD000184805F0E7FA26E01021164805F020FB0A
:103BE0001C480088012810D11B480078401C1A4945
:103BF000087008460078032807DD00201549088072
:103C000015490870154805F033FD0A4805F0E1FA3A
:103C10000D49088008460088114A1288104481B274
:103C2000044805F0C1FA10BD88080020808D5B00B3
:103C300072140020000400407C140020C201002007
:103C4000CA0100207D080020C0010020C40100201E
:103C5000C6010020A8010020CC0100209001002016
:103C6000C801002008B50121602004F041F940F2AC
:103C70008370ADF8000010208DF8030003208DF84C
:103C800002006946F84803F011FE8020ADF80000FC
:103C900010208DF8030003208DF802006946F348D8
:103CA00003F004FE4FF47F40ADF8000010208DF8C3
:103CB000030003208DF802006946EC4803F0F6FD8E
:103CC00008BD08B50121602004F012F94FF47F40CF
:103CD000ADF8000010208DF8030003208DF80200DD
:103CE0006946E24803F0E2FD08BD08B50121602005
:103CF00004F0FEF84FF47F40ADF8000048208DF846
:103D0000030003208DF802006946D84803F0CEFD79
:103D100008BD70B50446012C07D0022C05D0214601
:103D2000D3A006F045F8FF2070BD0221CE4803F075
:103D30006CFEFFF7DAFF0121CB4803F066FE012C91
:103D400004D12102C84803F05EFE04E04FF4007184
:103D5000C54803F058FE0221C34803F054FE012079
:103D600005F0B5FF8021C14803F04DFE012005F0AC
:103D7000AEFF8021BD4803F048FEBC4803F032FE90
:103D80000546012005F0A3FF0221B74803F03DFEE0
:103D9000012C04D12102B44803F037FE04E04FF4B3
:103DA0000071B14803F031FE802000EA252008B1FF
:103DB0000120B9E70020B7E770B506460C46012C94
:103DC00006D0022C04D02146A9A005F0F1FF70BD59
:103DD0000221A54803F017FEFFF773FF0121A24857
:103DE00003F013FE012C04D121029F4803F00BFEC7
:103DF00004E04FF400719C4803F005FE02219A484C
:103E000003F003FE994803F0EDFD0546EDB245EAE7
:103E100006252946954803F0FFFD8021934803F0CD
:103E2000F2FD012005F053FF8021904803F0EDFDE5
:103E3000012005F04CFF02218B4803F0E4FD012C2A
:103E400004D12102884803F0E0FD05E0022C03D1F3
:103E50002102854803F0D9FD00BFB8E770B50646DA
:103E60000C46012C06D0022C04D0214680A005F07F
:103E70009FFF70BD02217C4803F0C5FDFFF721FFC5
:103E80000121794803F0BFFD012C04D121027648BD
:103E900003F0B9FD04E04FF40071734803F0B3FD83
:103EA0000221714803F0B1FD704803F09BFD054607
:103EB000EDB245EA062529466C4803F0ADFD8021A8
:103EC0006A4803F0A0FD012005F001FF802167484A
:103ED00003F09BFD012005F0FAFE0221624803F089
:103EE00092FD012C04D121025F4803F08EFD04E015
:103EF0004FF400715C4803F088FD00BFB9E770B56E
:103F000006460C46402C01DB022500E0012529462F
:103F1000C020FFF751FF04F03F0101F140002946A6
:103F2000FFF74AFF06F00701B831C8B22946FFF78C
:103F300043FF70BD70B5002500BF1DE0002128467D
:103F4000FFF7DDFF002405E001210020FFF786FFD9
:103F5000601CC4B2402CF7DB40212846FFF7CFFF9E
:103F6000002405E002210020FFF778FF601CC4B2A6
:103F7000402CF7DB681CC5B2082DDFDB70BD70B5C7
:103F800005466906080E0021FFF7B9FF002405E089
:103F900001210020FFF762FF601CC4B2402CF7DB58
:103FA000012101EB4501C8B20021FFF7A8FF002461
:103FB00005E001210020FFF751FF601CC4B2402C36
:103FC000F7DB6906080E4021FFF799FF002405E0A2
:103FD00002210020FFF742FF601CC4B2402CF7DB37
:103FE000012101EB4501C8B24021FFF788FF002401
:103FF00005E002210020FFF731FF601CC4B2402C15
:10400000F7DB70BD10B5FFF72DFE8021164803F0D9
:10401000FCFC4FF48061144803F0F7FC1B4805F0EA
:1040200056FE4FF48061104803F0EDFC174805F090
:104030004EFE80210D4803F0E8FC012005F047FE0C
:104040000121C020FFF7B8FE01213F20FFF7B4FE99
:104050000221C020FFF7B0FE02213F20FFF7ACFE97
:10406000FFF768FF10BD0000001401400018014078
:10407000636F6E74726F6C6C65725F637328256416
:10408000296572726F722E2E2E0D0A00A086010015
:1040900070B505460026002400BF1DE00021304613
:1040A000FFF72DFF002413E0402C03D121463046BA
:1040B000FFF725FF402C04DA28780121FFF7CEFE18
:1040C00003E028780221FFF7C9FE6D1C601CC4B212
:1040D000802CE9DB701CC6B2082EDFDB70BD10B58A
:1040E0007C48FFF7D5FF7C4805F0F1FD10BD2DE9B8
:1040F000F04F85B007460C4690469946032F04DCE6
:104100000F2C02DCB8F1000F04D14FF0FF3005B0E6
:10411000BDE8F08F09EB0400102803DDC4F11000A6
:1041200000F0FF09002554E026464FF0000A4AE05F
:10413000082E02DB0220049001E001200490C02040
:104140000499FFF739FE05EB4700C0B240F0B80014
:104150000390DDE90301FFF72FFE3F2000EAC600D0
:1041600040F04000029004990298FFF725FE18F8ED
:104170000A0000F0800018B158A005F019FE1CE0FC
:104180004FF0000B16E018F80A002038C1B2019178
:10419000082000FB05B0C1B20091584A019902EB1A
:1041A00001120099505C0499FFF758FE0BF10100D1
:1041B00000F0FF0BBBF1080FE5DB701CC6B20AF183
:1041C000010000F0FF0A04EB0900B042B0DC681CFB
:1041D000C5B2022DA8DB002099E710B58021484820
:1041E00003F011FCFFF7A6FE10BD10B58021444876
:1041F00003F00BFC10BD11B583B003AC00200090A0
:10420000072340A200210846FFF771FF9DF80C002C
:104210000A2190FBF1F201FB1200C0B2029002AC45
:10422000207830302070012322460020FFF75FFF06
:104230009DF80C000A2814DB9DF80C000A2190FB65
:10424000F1F090FBF1F201FB1200C0B2019001AC61
:104250002078303020700123224609210020FFF70A
:1042600046FF9DF80C00642815DB9DF80C006421C6
:1042700090FBF1F00A2190FBF1F201FB1200C0B2B9
:1042800000906C46207830302070012322460821AF
:104290000020FFF72CFF1FBD704710B51B480478A6
:1042A00002201A49087014B1012C10D108E0FFF760
:1042B00041FE17480078FFF79EFFFFF7EDFF07E08C
:1042C000FFF738FE12480078FFF795FF00E000BFC7
:1042D00000BF10BD99A7000840420F006E6F742008
:1042E000737570706F727420646973706C6179207B
:1042F0006368696E6573650D0A000000CD010020DA
:10430000001401404E756D6265723A003000002065
:104310000A00002008B50121402003F0E9FD10202B
:10432000ADF800008DF8030003208DF80200694607
:10433000FE4803F0BBFA2020ADF8000048208DF8BD
:1043400003006946F94803F0B1FA08BD10B5044608
:104350002CB101221021F54803F059FB04E00022A2
:104360001021F24803F053FB10BD10B52021EF4897
:1043700003F02FFB10BD012000BF011EA0F10100C2
:10438000FBD1704710B50120FFF7E0FF10BD10B55D
:104390000020FFF7DBFF10BD10B5FFF7BBFFFFF7F5
:1043A000F1FF10BD2DE9F041064600251FE0002079
:1043B000DF4908704FF4E15400E0641EFFF7D5FFB9
:1043C00008B9002CF9D114B90120BDE8F08105F03D
:1043D0004EFC06E005F050FCD649884201D8322553
:1043E00003E0FFF7C2FF0128F4D000BF6D1C322D9F
:1043F000DDD34FF4E15400E0641EFFF7B6FF01285F
:1044000001D1002CF8D10CB90120DEE7CA4C00E044
:10441000641EFFF7AAFF08B9002CF9D10CB90120DE
:10442000D3E705F024FCDFF81483002548E00027DB
:104430003DE000BF05F020FC4045FBDCFFF795FFA9
:1044400001281BD14FF4E15400E0641EFFF78DFFFB
:10445000012801D1002CF8D10CB90120B5E7B448EE
:1044600000784010B24908700846007840F080009B
:104470000870DFF8CC8205F0FAFB17E04FF4E15446
:1044800000E0641EFFF771FF08B9002CF9D10CB9E8
:1044900001209AE7A64800784010A5490870084610
:1044A00000780870DFF8988205F0E1FB7F1C082F88
:1044B000BFD39F480078705500209D4908706D1C3F
:1044C000082DB4D3002080E710B59E48007801285D
:1044D0000BD105F0CCFB00BF05F0CEFB9A4988421A
:1044E000FAD80020FFF732FF0AE005F0C0FB00BF5A
:1044F00005F0C2FB95498842FAD80020FFF726FF55
:1045000005F0B5FB00BF05F0B7FB91498842FAD82A
:104510000120FFF71BFF10BD10B5044605F0A7FBF7
:1045200000BF05F0A9FB8B498842FAD80020FFF7AD
:104530000DFF05F09CFB00BF05F09EFB8249884201
:10454000FAD80120FFF702FF7E480470007800F0DF
:1045500010007C49087008460078102804D101201A
:104560000870FFF7B1FF04E0002076490870FFF7FC
:10457000ABFF74480470007800F0010071490870C6
:10458000FFF7A2FF10BD10B504466E480470007816
:1045900000F001006B490870FFF796FF10BD70B581
:1045A000002413E06C48055D00260BE065480570AB
:1045B000007800F0010063490870FFF785FF6D1077
:1045C000701CC6B2082EF1DB601CC4B2042CE9DBFF
:1045D00070BD10B504465B480470007800F004001C
:1045E0005849087008460078042804D10120087052
:1045F000FFF76AFF04E0002052490870FFF764FFEC
:1046000050480470007800F002004E4908700846D7
:104610000078022804D101200870FFF755FF04E05C
:10462000002048490870FFF74FFF464804700078A3
:1046300000F0010043490870FFF746FF10BD3EB58A
:1046400004461120FFF768FF012005F019FB204602
:10465000FFF7A8FE08B101203EBD052005F010FBC4
:104660001120FFF759FF012005F00AFB6846FFF70C
:1046700099FE08B10120EFE708222146684605F0BF
:1046800045FD08B10120E7E70020E5E770B58CB0F3
:1046900000200A900B900AA8FFF7D1FF0446002CD7
:1046A00042D100BF5C212DA005F05CFD28B15C214A
:1046B0002AA005F057FD401C00E028A0054605F0A3
:1046C000ECFA06464FF495702B4B2A463146009083
:1046D0002AA005F06DFB00BF00BF5C211FA005F004
:1046E00041FD28B15C211DA005F03CFD401C00E00F
:1046F0001AA0054605F0D1FA06469DF82F009DF850
:104700002E109DF82D209DF82C30CDE90532CDE9F5
:1047100007109DF82B009DF82A109DF829209DF880
:104720002830CDE9013241E04CE0000000180140A2
:10473000BD07002000320A0040190100B0450A0000
:10474000109A0A00BE07002080900A0080D80A0054
:1047500030B60A00407E0500BF0700202E2E5C64A4
:104760007269766572735C6C663132356B5C6C664F
:104770003132356B2E63000099AB00085B256C6409
:104780005D5B2538735D5B2538735D5B252D336478
:104790005D5B494E464F5D3A20B5CDC6B5BFA8BB5F
:1047A000F1C8A1B3C9B9A6A3A10D0A00CDE90310B0
:1047B00040F22B10DD4B2A4631460090DCA005F07C
:1047C000F7FA1DE000BF5C21AFF2700005F0CAFCF3
:1047D00030B15C21AFF27C0005F0C4FC401C01E06C
:1047E000AFF28800054605F058FA06464FF4987077
:1047F000CE4B2A4631460090DDA005F0D9FA00BF25
:104800000CB070BD3EB504460D4604F00704102000
:10481000FFF782FE0020FFF7B6FE2046FFF7D9FE25
:10482000022005F02DFA6846FFF7BCFD022005F0D6
:1048300027FA1020FFF770FE0020FFF7A4FE2046A5
:10484000FFF7C7FE022005F01BFA2846FFF7AAFD76
:1048500004222946684605F059FC08B101203EBDF6
:104860000020FCE7FEB505460C46002605F080005A
:10487000802800D1012605F007050DB90120FEBDF5
:104880001020FFF749FE3046FFF77DFE2078C4492F
:10489000087060784870A0788870E078C870FFF77A
:1048A0007EFE2846FFF795FE022005F0E9F910206C
:1048B000FFF732FE0020FFF766FE2846FFF789FE6D
:1048C000022005F0DDF96846FFF76CFD0422214661
:1048D000684605F01BFC08B10120D0E70020CEE7B8
:1048E0000246012070472DE9F04106460C46154668
:1048F000002706F08000802800D101271020FFF754
:104900000BFE2878A649087068784870A8788870E7
:10491000E878C870FFF743FE3846FFF734FE20788A
:104920009F49087060784870A0788870E078C870F7
:10493000FFF735FE3046FFF74CFE012005F0A0F9E9
:104940002046FFF72FFD10B10120BDE8F0810020C7
:10495000FBE770B506460D4614461020FFF7DCFD58
:1049600020788F49087060784870A0788870E07867
:10497000C870FFF714FE0020FFF705FE3046FFF772
:1049800028FE012005F07CF92846FFF70BFD08B151
:10499000012070BD0020FCE70EB51020FFF7BCFD24
:1049A0000020FFF7F0FD00207D49087028204870A6
:1049B000012088701720C870FFF7F1FD0020FFF775
:1049C00008FE642005F05CF96846FFF7EBFC6846DA
:1049D000FFF735FE0EBD10B51020FFF79DFD00203E
:1049E000FFF7D1FD00206E49087028204870012093
:1049F00088701720C870FFF7D2FD0020FFF7E9FD8F
:104A000010BD0EB51020FFF787FD0020FFF7BBFD9E
:104A10000020634908702820487001208870172002
:104A2000C870FFF7BCFD0020FFF7D3FD642005F040
:104A300027F96846FFF7B6FC6846FFF700FE0EBD93
:104A400010B51020FFF768FD0020FFF79CFD002047
:104A50005349087028204870412088701F20C87072
:104A6000FFF79DFD0020FFF7B4FD10BD10B5044613
:104A700021460720FFF7F6FE08B1012010BD1020E7
:104A8000FFF74AFD0020FFF77EFD00204449087033
:104A900028204870412088701F20C870FFF77FFDD4
:104AA0000020FFF796FD0020E8E73EB50446102001
:104AB000FFF732FD20783A49087060784870A07896
:104AC0008870E078C870FFF76AFD0020FFF75BFD93
:104AD0000020334908702820487001208870172072
:104AE000C870FFF75CFD0020FFF773FD012005F0A3
:104AF000C7F86846FFF756FC08B101203EBD00200C
:104B0000FCE73EB504466846FFF799FD58B19DF8AD
:104B1000040020709DF8050060709DF80600A070EC
:104B20009DF80700E07000203EBD000099AB000832
:104B30005B256C645D5B2538735D5B2538735D5B5D
:104B4000252D33645D5B494E464F5D3A20696420F4
:104B5000636172643A25582025582025582025582D
:104B60002025582025582025582025580D0A0000BA
:104B70005B256C645D5B2538735D5B2538735D5B1D
:104B8000252D33645D5B494E464F5D3A20B5CDC659
:104B9000B5BFA8BBF1C8A1CAA7B0DCA3A10D0A008C
:104BA000BF07002010B54FF4E130FEF7BDFB002039
:104BB00010BD7CB505460024FD222146641C0DF87D
:104BC000012000222146641C0DF80120012221460B
:104BD000641C0DF801202146641C0DF8015021468B
:104BE0006846FEF7F4FB4FF496714120FEF705FC92
:104BF0007CBD7FB500244FF4967500200290039091
:104C0000FD222146641C0DF8012000222146641C6F
:104C10000DF8012001222146641C0DF801202122FB
:104C20002146641C0DF8012021466846FEF7CFFBA3
:104C300012E04FF47A7005F04AF82021FE4804F0A3
:104C40009DFC48B1FC4804F02FFCC0B28DF8080070
:104C50009DF8080004B070BD681E051EE9D1401E15
:104C6000F8E710B58820FFF7A4FF10BD10B5FF20AE
:104C7000FFF79FFF10BD2DE9F04707468846924693
:104C80000025A94617B9681EBDE8F087B8F1030FE3
:104C900002DD4FF0FF30F7E7384605F06EFA0646C2
:104CA0000121304605F049F8044614B94FF0FF30B1
:104CB000EAE7FD2228466D1C2254C6F30722284647
:104CC0006D1C2254B01CC2B228466D1C2254012215
:104CD00028466D1C225428466D1C04F8008032467C
:104CE0003946601D05F068FA3544E9B22046FEF702
:104CF0006EFB4FF496714120FEF77FFB814614B1A5
:104D0000204605F02EF84846BEE710B50220FFF712
:104D100050FF10BD10B50320FFF74BFF10BD10B5BD
:104D20000420FFF746FF10BD2DE9F04780460F46EF
:104D300000240025A146B8F1000F02D1601EBDE895
:104D4000F087102F02DB4FF0FF30F8E7404605F008
:104D500014FA86B2C7F11000B6EB002F02DD4FF057
:104D6000FF30ECE70121304604F0E7FF044614B9B8
:104D70004FF0FF30E3E7FD222846691C8DB2225434
:104D8000320A2846691C8DB22254B01CC2B2284691
:104D9000691C8DB2225431222846691C8DB22254DE
:104DA0002846691C8DB2275460193246414605F0E9
:104DB00003FAA81985B2E9B22046FEF708FB4FF4C2
:104DC00096714120FEF719FB00F0FF0914B120464F
:104DD00004F0C7FF4846B2E77CB505460E460024FE
:104DE000032E01DC0F2D02DD4FF0FF307CBDFD22D4
:104DF0002046611C8CB20DF8002000222046611C68
:104E00008CB20DF8002002222046611C8CB20DF8F5
:104E1000002032222046611C8CB20DF80020F020C8
:104E200000EA051006F00F0108432146621C94B207
:104E30000DF80100E1B26846FEF7C9FA4FF4967129
:104E40004120FEF7DAFAD1E770B505460E46002498
:104E500004E0295D79A004F0ABFF641CB442F8DBE8
:104E600077A004F0A5FF70BD2DE9F84304460F4676
:104E700001251CB900252846BDE8F88300BF5C2148
:104E800070A005F06FF928B15C216EA005F06AF9F9
:104E9000401C00E06BA0064604F0FFFE80464FF485
:104EA000C870714B32464146009070A004F080FFFC
:104EB00000BF1020FFF77DFE01281CD0002500BF99
:104EC0005C2160A005F04EF928B15C215DA005F0E1
:104ED00049F9401C00E05BA0064604F0DEFE804677
:104EE0004FF4CA70604B3246414600906CA004F00B
:104EF0005FFF00BF1BE000BF5C2152A005F032F94C
:104F000028B15C214FA005F02DF9401C00E04DA018
:104F1000064604F0C2FE804640F29710524B3246DD
:104F2000414600906EA004F043FF00BF00BF1F2069
:104F3000FFF73FFE01281BD0002500BF5C2141A0E8
:104F400005F010F928B15C213EA005F00BF9401CDA
:104F500000E03CA0064604F0A0FE80464FF4D3706B
:104F6000414B3246414600906DA004F021FF00BF46
:104F700000BF5C2133A005F0F5F828B15C2131A019
:104F800005F0F0F8401C00E02EA0064604F085FE77
:104F9000804640F2A910344B32464146009070A042
:104FA00004F006FF00BF284666E730B591B0342113
:104FB00004A805F070F9FBF79AFE79480078401EC6
:104FC000784901EBC000C07975490978491E754AD6
:104FD00002EBC1018979CDE9001071480078401ECB
:104FE000114601EBC00043796D4802786EA104A818
:104FF00004F0EAFE00BF5C2112A005F0B3F828B16E
:105000005C2110A005F0AEF8401C00E00DA00446A5
:1050100004F043FE054662480078401E614901EBFA
:10502000C000C0795E490978491E5E4A02EBC101A1
:1050300089795B4A1278CDE000480040257820004D
:105040000D0A00002E2E5C647269766572735C78BE
:1050500066733531353263655C7866733531353268
:1050600063652E6300000000A5AB00085B256C643F
:105070005D5B2538735D5B2538735D5B252D33647F
:105080005D5B494E464F5D3A207265636F676E699E
:105090007A652073746172742E2E2E0D0A00000042
:1050A0005B256C645D5B2538735D5B2538735D5BE8
:1050B000252D33645D5B4552524F5D3A2045727237
:1050C0006F723A205846535F434D445F5245434FF9
:1050D000474E495A455F53544152540D0A0000004F
:1050E0005B256C645D5B2538735D5B2538735D5BA8
:1050F000252D33645D5B4552524F5D3A20537563F5
:10510000636565643A205846535F434D445F52459A
:10511000434F474E495A455F53544152540D0A007C
:105120005B256C645D5B2538735D5B2538735D5B67
:10513000252D33645D5B4552524F5D3A20457272B6
:105140006F723A205846535F434D445F5245434F78
:10515000474E495A455F53544F500D0A0000000016
:105160005B256C645D5B2538735D5B2538735D5B27
:10517000252D33645D5B4552524F5D3A2053756374
:10518000636565643A205846535F434D445F52451A
:10519000434F474E495A455F53544F500D0A000044
:1051A00009000020DC080020C7EB2564BAC5B5BDA6
:1051B000B4B0BFDAA3AC4944BFA8CEB2BAC5BAF303
:1051C000C8FDCEBBCEAA2578202C2578202C2578AA
:1051D00020000000521E3F4B03EBC20252794FF4F5
:1051E000DE73CDE90032CDE902103B4B2246294661
:1051F0003AA004F0DDFD00BF0122114604A8FFF72C
:105200003AFD01204049087011B030BD10B50122AF
:1052100011463EA0FFF72FFD10BD10B5012211462B
:105220003DA0FFF728FD0122114641A0FFF723FD15
:105230000122114641A0FFF71EFD0122114642A0A6
:10524000FFF719FD10BD7CB51E2001904FF47A7157
:1052500001A8FFF709FE012823D100BF5C21AFF2AE
:105260001C2004F07FFF30B15C21AFF2282004F055
:1052700079FF401C01E0AFF23420044604F00DFD3C
:1052800005464FF4ED70334B22462946009032A07C
:1052900004F08EFD00BF012211463CA0FFF7EBFC9D
:1052A0007CBD3E499DF8042051F8220001221146A0
:1052B000FFF7E1FC9DF80400182802D1FEF795FFE6
:1052C00005E09DF804001A2801D1FEF786FF00BF13
:1052D000E6E70000DC080020B3AB00085B256C6447
:1052E0005D5B2538735D5B2538735D5B252D33640D
:1052F0005D5B494E464F5D3A205B2025782025783E
:105300002025785D0D0A000030000020CBA2BFA848
:10531000B3C9B9A600000000D5FDD4DAB4E6B4A242
:10532000A3ACC7EBCEF0D2C6BFAAB4C5BFA80000DD
:10533000B4E6B4A2CDEAB3C9A3A10000B4C5BFA826
:10534000D2D1B4E6D4DA0000BFD5BCE4D2D1C2FADF
:1053500000000000C5AB00085B256C645D5B253870
:10536000735D5B2538735D5B252D33645D5B494E52
:10537000464F5D3A207265636F676E6974696F6E40
:10538000206661696C6564210D0A0000D3EFD2F4D8
:10539000CAB6B1F0CAA7B0DC00000000C807002000
:1053A00008B54FF48070ADF8000010208DF80300B0
:1053B00003208DF8020069467A4802F077FA08BDAA
:1053C00010B50121C80202F093FD0121052002F071
:1053D0008FFD10BD1FB519208DF8000003208DF83A
:1053E000010002208DF8020001208DF803006846BC
:1053F00001F0C5FDFFF7E4FFFFF7D2FF6A48006840
:105400006A49B0FBF1F0401E6949088044F620600B
:10541000ADF8080008460088ADF804000020ADF89B
:105420000A00ADF8060001A9624803F0C3F80121A3
:10543000604803F01BFD01215E4803F017FC1FBD0F
:1054400010B5044621465B4803F0A8FE10BD08B520
:1054500036208DF8000003208DF8010002208DF821
:10546000020001208DF80300684601F088FD08BDA8
:105470000EB50121102002F048FD4F4802F0C6FF92
:10548000494800684949B0FBF1F0401E80B2ADF8D0
:1054900000000020ADF80600ADF80200FA20ADF8DB
:1054A00004006946444803F085F80121424803F0AE
:1054B000A3FE0121404803F0D9FC002201213E480F
:1054C00003F0EFFB0EBD10B5FFF7C1FFFFF7D0FFF4
:1054D0000121394803F0CAFB002010BD10B501219D
:1054E000354803F08CFE20B30121334803F098FEC9
:1054F0003248007868B13248007800F001024FF479
:105500008071284802F083FA2D480088401C2C49FD
:1055100008802B480088B0F57A7F0ADB00202849F4
:1055200008802649087000224FF480711D4802F05F
:105530006EFA10BD10B5FFF7C6FFFFF731FF10BDC3
:1055400070B504460D4621461A4803F025FE29464B
:10555000184803F023FE70BD10B542F210714800E8
:10556000FFF7EEFF0120154908700122114612488D
:1055700003F097FB0121104803F078FB10BD10B534
:10558000002144F62060FFF7DBFF00200B49087084
:1055900000220121084803F084FB0021064803F0A3
:1055A00065FB10BD000801408808002040420F0044
:1055B00040080020002C014000100040420800205C
:1055C0004408002008B50021FE4802F064FEFD48B2
:1055D00002F096FD00214FF4805002F089FC20205B
:1055E000ADF8000004208DF803006946F64802F08B
:1055F0005DF94020ADF800006946F34802F056F925
:105600008020ADF800006946EF4802F04FF9102005
:10561000ADF800006946EC4802F048F908BD08B54D
:105620000121042002F064FC0121080302F060FC67
:105630002020ADF8000003208DF8020018208DF81E
:1056400003006946E04802F031F98020ADF800001F
:105650006946DD4802F02AF94020ADF80000042038
:105660008DF803006946D84802F020F91020ADF803
:1056700000008DF803006946D34802F017F908BD11
:1056800010B5FFF79FFF10BD00B585B0FFF7C7FF4E
:105690001021CD4802F0B7F90020ADF800004FF41A
:1056A0008270ADF802000020ADF804000220ADF8D1
:1056B00006000120ADF808004002ADF80A000820FD
:1056C000ADF80C000020ADF80E000720ADF810007A
:1056D0006946BC4802F03AFD0121BA4802F0DBFD00
:1056E00005B000BD10B5FFF7CFFF10BD10B50446E3
:1056F00000BF0221B34802F052FE0028F9D0214633
:10570000B04802F0F9FD00BF0121AE4802F047FEAB
:105710000028F9D0AB4802F0F1FDC0B210BD70B561
:1057200004461021A84802F070F92046FFF7DEFF7A
:105730000020FFF7DBFF05461021A34802F063F9C4
:10574000284670BD2DE9F04104460E46174610214B
:105750009D4802F05AF92046FFF7C8FF002505E0F2
:105760000020FFF7C3FF7055681CC5B2BD42F7DBD0
:105770001021954802F047F9BDE8F08170B5044664
:105780000D461021904802F040F944F08000FFF7E8
:10579000ADFF2846FFF7AAFF10218B4802F033F92E
:1057A00070BD2DE9F04105460E461746102186488A
:1057B00002F02BF945F08000FFF798FF002404E089
:1057C000305DFFF793FF601CC4B2BC42F8DB1021D0
:1057D0007D4802F018F9BDE8F08108B501210420E8
:1057E00002F086FB0820ADF8000048208DF8030089
:1057F00003208DF802006946734802F057F808BD8F
:1058000008B50121042002F073FB0420ADF800006C
:1058100010208DF8030003208DF8020069466A48C5
:1058200002F044F801220421674802F0F0F844F63F
:10583000206004F04CFA00220421634802F0E7F8EB
:1058400044F6206004F043FA08BD70B50025FFF768
:10585000D7FFFFF747FFFFF7C0FF0320FFF75FFF0A
:105860000420FFF75CFF80210720FFF787FF00245B
:1058700010E00A2004F02BFA2046641C42F210715A
:10588000884207DD80210720FFF778FF4F4804F0AA
:105890001EFA05E008214C4802F09BF80128E8D0E8
:1058A00000BF0320FFF73BFF0420FFF738FF002471
:1058B00009E00A2004F00BFA2046641C42F2107141
:1058C000884200DD05E008213F4802F082F8012807
:1058D000EFD000BF0320FFF722FF0420FFF71FFFD8
:1058E0001D216D20FFF74AFF53217520FFF746FF6A
:1058F00064217620FFF742FF00217720FFF73EFF6B
:10590000FF217920FFF73AFFFF217A20FFF736FFCA
:105910004E216E20FFF732FFA5216F20FFF72EFFEB
:105920002C217020FFF72AFF05211C20FFF726FFFE
:10593000A1212020FFF722FF20212120FFF71EFFB9
:105940004E212220FFF71AFFA5212320FFF716FF83
:1059500000212420FFF712FF13212520FFF70EFF5F
:1059600040211D20FFF70AFF1F217220FFF706FFCD
:105970000A213420FFF702FF28213520FFF7FEFE21
:1059800002213320FFF7FAFE2D213620FFF7F6FE25
:10599000D4213720FFF7F2FE8D213020FFF7EEFEF5
:1059A00000213220FFF7EAFE63217120FFF7E6FEB7
:1059B0007F215A20FFF7E2FE80215820FFF7DEFE0C
:1059C000402105E00030014000080140A0860100B0
:1059D0005920FFF7D3FE0B216A20FFF7CFFE0421E9
:1059E0006820FFF7CBFE03211F20FFF7C7FED7215A
:1059F0000920FFF7C3FE05210720FFF7BFFE0321A3
:105A00000520FFF7BBFE00210620FFF7B7FE0320AD
:105A1000FFF785FE0420FFF782FE284670BD2DE9C2
:105A2000F04105460C469046002701210720FFF76C
:105A3000A5FE48217220FFF7A1FE21463E20FFF778
:105A40009DFE802C01DA204600E08020044622469C
:105A500029467F20FFF7A5FE04210520FFF78EFED3
:105A600000210620FFF78AFE0320FFF758FE0420DE
:105A7000FFF755FE09210720FFF780FE002609E009
:105A80000A2004F024F93046761C42F21071884254
:105A900000DD05E00821364801F09BFF0128EFD02A
:105AA00000BF0320FFF73BFE0420FFF738FE032171
:105AB0000520FFF763FE00210620FFF75FFE0320AD
:105AC000FFF72DFE0420FFF72AFE1F217220FFF7AB
:105AD00055FE05210720FFF751FE27463846BDE851
